{
	"contracts/Vote.sol": {
		"Vote": {
			"abi": [
				{
					"anonymous": false,
					"inputs": [
						{
							"indexed": false,
							"internalType": "address",
							"name": "newcandidate",
							"type": "address"
						},
						{
							"indexed": false,
							"internalType": "uint256",
							"name": "timestamp",
							"type": "uint256"
						}
					],
					"name": "NewcandidateProposed",
					"type": "event"
				},
				{
					"anonymous": false,
					"inputs": [
						{
							"indexed": false,
							"internalType": "address",
							"name": "voter",
							"type": "address"
						},
						{
							"indexed": false,
							"internalType": "uint256",
							"name": "timestamp",
							"type": "uint256"
						}
					],
					"name": "voted",
					"type": "event"
				},
				{
					"inputs": [
						{
							"internalType": "uint256",
							"name": "",
							"type": "uint256"
						}
					],
					"name": "candidates",
					"outputs": [
						{
							"internalType": "string",
							"name": "name",
							"type": "string"
						},
						{
							"internalType": "uint256",
							"name": "votecount",
							"type": "uint256"
						}
					],
					"stateMutability": "view",
					"type": "function"
				},
				{
					"inputs": [],
					"name": "getwinner",
					"outputs": [
						{
							"internalType": "string",
							"name": "name",
							"type": "string"
						}
					],
					"stateMutability": "view",
					"type": "function"
				},
				{
					"inputs": [
						{
							"internalType": "address",
							"name": "",
							"type": "address"
						}
					],
					"name": "hasvote",
					"outputs": [
						{
							"internalType": "bool",
							"name": "",
							"type": "bool"
						}
					],
					"stateMutability": "view",
					"type": "function"
				},
				{
					"inputs": [
						{
							"internalType": "string",
							"name": "name",
							"type": "string"
						}
					],
					"name": "proposecandidate",
					"outputs": [],
					"stateMutability": "nonpayable",
					"type": "function"
				},
				{
					"inputs": [
						{
							"internalType": "uint256",
							"name": "candidateindex",
							"type": "uint256"
						}
					],
					"name": "vote",
					"outputs": [],
					"stateMutability": "nonpayable",
					"type": "function"
				}
			],
			"devdoc": {
				"kind": "dev",
				"methods": {},
				"version": 1
			},
			"evm": {
				"assembly": "    /* \"contracts/Vote.sol\":66:1537  contract Vote {... */\n  mstore(0x40, 0x80)\n  callvalue\n  dup1\n  iszero\n  tag_1\n  jumpi\n  0x00\n  dup1\n  revert\ntag_1:\n  pop\n  dataSize(sub_0)\n  dup1\n  dataOffset(sub_0)\n  0x00\n  codecopy\n  0x00\n  return\nstop\n\nsub_0: assembly {\n        /* \"contracts/Vote.sol\":66:1537  contract Vote {... */\n      mstore(0x40, 0x80)\n      callvalue\n      dup1\n      iszero\n      tag_1\n      jumpi\n      0x00\n      dup1\n      revert\n    tag_1:\n      pop\n      jumpi(tag_2, lt(calldatasize, 0x04))\n      shr(0xe0, calldataload(0x00))\n      dup1\n      0x0121b93f\n      eq\n      tag_3\n      jumpi\n      dup1\n      0x3477ee2e\n      eq\n      tag_4\n      jumpi\n      dup1\n      0xa3dfb329\n      eq\n      tag_5\n      jumpi\n      dup1\n      0xe6293cf0\n      eq\n      tag_6\n      jumpi\n      dup1\n      0xe7bb7cbe\n      eq\n      tag_7\n      jumpi\n    tag_2:\n      0x00\n      dup1\n      revert\n        /* \"contracts/Vote.sol\":666:1089  function vote(uint candidateindex) public {... */\n    tag_3:\n      tag_8\n      0x04\n      dup1\n      calldatasize\n      sub\n      dup2\n      add\n      swap1\n      tag_9\n      swap2\n      swap1\n      tag_10\n      jump\t// in\n    tag_9:\n      tag_11\n      jump\t// in\n    tag_8:\n      stop\n        /* \"contracts/Vote.sol\":161:190  candidate[] public candidates */\n    tag_4:\n      tag_12\n      0x04\n      dup1\n      calldatasize\n      sub\n      dup2\n      add\n      swap1\n      tag_13\n      swap2\n      swap1\n      tag_10\n      jump\t// in\n    tag_13:\n      tag_14\n      jump\t// in\n    tag_12:\n      mload(0x40)\n      tag_15\n      swap3\n      swap2\n      swap1\n      tag_16\n      jump\t// in\n    tag_15:\n      mload(0x40)\n      dup1\n      swap2\n      sub\n      swap1\n      return\n        /* \"contracts/Vote.sol\":196:235  mapping(address => bool) public hasvote */\n    tag_5:\n      tag_17\n      0x04\n      dup1\n      calldatasize\n      sub\n      dup2\n      add\n      swap1\n      tag_18\n      swap2\n      swap1\n      tag_19\n      jump\t// in\n    tag_18:\n      tag_20\n      jump\t// in\n    tag_17:\n      mload(0x40)\n      tag_21\n      swap2\n      swap1\n      tag_22\n      jump\t// in\n    tag_21:\n      mload(0x40)\n      dup1\n      swap2\n      sub\n      swap1\n      return\n        /* \"contracts/Vote.sol\":407:611  function proposecandidate(string memory name) public { //this is transactional function ... */\n    tag_6:\n      tag_23\n      0x04\n      dup1\n      calldatasize\n      sub\n      dup2\n      add\n      swap1\n      tag_24\n      swap2\n      swap1\n      tag_25\n      jump\t// in\n    tag_24:\n      tag_26\n      jump\t// in\n    tag_23:\n      stop\n        /* \"contracts/Vote.sol\":1095:1504  function getwinner() public view returns (string memory name) {... */\n    tag_7:\n      tag_27\n      tag_28\n      jump\t// in\n    tag_27:\n      mload(0x40)\n      tag_29\n      swap2\n      swap1\n      tag_30\n      jump\t// in\n    tag_29:\n      mload(0x40)\n      dup1\n      swap2\n      sub\n      swap1\n      return\n        /* \"contracts/Vote.sol\":666:1089  function vote(uint candidateindex) public {... */\n    tag_11:\n        /* \"contracts/Vote.sol\":749:754  false */\n      0x00\n        /* \"contracts/Vote.sol\":726:754  hasvote[msg.sender] == false */\n      iszero\n      iszero\n        /* \"contracts/Vote.sol\":726:733  hasvote */\n      0x01\n        /* \"contracts/Vote.sol\":726:745  hasvote[msg.sender] */\n      0x00\n        /* \"contracts/Vote.sol\":734:744  msg.sender */\n      caller\n        /* \"contracts/Vote.sol\":726:745  hasvote[msg.sender] */\n      0xffffffffffffffffffffffffffffffffffffffff\n      and\n      0xffffffffffffffffffffffffffffffffffffffff\n      and\n      dup2\n      mstore\n      0x20\n      add\n      swap1\n      dup2\n      mstore\n      0x20\n      add\n      0x00\n      keccak256\n      0x00\n      swap1\n      sload\n      swap1\n      0x0100\n      exp\n      swap1\n      div\n      0xff\n      and\n        /* \"contracts/Vote.sol\":726:754  hasvote[msg.sender] == false */\n      iszero\n      iszero\n      eq\n        /* \"contracts/Vote.sol\":718:780  require(hasvote[msg.sender] == false, \"You Have Already Vote\") */\n      tag_32\n      jumpi\n      mload(0x40)\n      0x08c379a000000000000000000000000000000000000000000000000000000000\n      dup2\n      mstore\n      0x04\n      add\n      tag_33\n      swap1\n      tag_34\n      jump\t// in\n    tag_33:\n      mload(0x40)\n      dup1\n      swap2\n      sub\n      swap1\n      revert\n    tag_32:\n        /* \"contracts/Vote.sol\":840:850  candidates */\n      0x00\n        /* \"contracts/Vote.sol\":840:857  candidates.length */\n      dup1\n      sload\n      swap1\n      pop\n        /* \"contracts/Vote.sol\":823:837  candidateindex */\n      dup2\n        /* \"contracts/Vote.sol\":823:857  candidateindex < candidates.length */\n      lt\n        /* \"contracts/Vote.sol\":815:885  require(candidateindex < candidates.length, \"Invalid Candidate Index\") */\n      tag_35\n      jumpi\n      mload(0x40)\n      0x08c379a000000000000000000000000000000000000000000000000000000000\n      dup2\n      mstore\n      0x04\n      add\n      tag_36\n      swap1\n      tag_37\n      jump\t// in\n    tag_36:\n      mload(0x40)\n      dup1\n      swap2\n      sub\n      swap1\n      revert\n    tag_35:\n        /* \"contracts/Vote.sol\":950:954  true */\n      0x01\n        /* \"contracts/Vote.sol\":928:935  hasvote */\n      dup1\n        /* \"contracts/Vote.sol\":928:947  hasvote[msg.sender] */\n      0x00\n        /* \"contracts/Vote.sol\":936:946  msg.sender */\n      caller\n        /* \"contracts/Vote.sol\":928:947  hasvote[msg.sender] */\n      0xffffffffffffffffffffffffffffffffffffffff\n      and\n      0xffffffffffffffffffffffffffffffffffffffff\n      and\n      dup2\n      mstore\n      0x20\n      add\n      swap1\n      dup2\n      mstore\n      0x20\n      add\n      0x00\n      keccak256\n      0x00\n        /* \"contracts/Vote.sol\":928:954  hasvote[msg.sender] = true */\n      0x0100\n      exp\n      dup2\n      sload\n      dup2\n      0xff\n      mul\n      not\n      and\n      swap1\n      dup4\n      iszero\n      iszero\n      mul\n      or\n      swap1\n      sstore\n      pop\n        /* \"contracts/Vote.sol\":995:1005  candidates */\n      0x00\n        /* \"contracts/Vote.sol\":1006:1020  candidateindex */\n      dup2\n        /* \"contracts/Vote.sol\":995:1021  candidates[candidateindex] */\n      dup2\n      sload\n      dup2\n      lt\n      tag_38\n      jumpi\n      tag_39\n      tag_40\n      jump\t// in\n    tag_39:\n    tag_38:\n      swap1\n      0x00\n      mstore\n      keccak256(0x00, 0x20)\n      swap1\n      0x02\n      mul\n      add\n        /* \"contracts/Vote.sol\":995:1031  candidates[candidateindex].votecount */\n      0x01\n      add\n      0x00\n        /* \"contracts/Vote.sol\":995:1033  candidates[candidateindex].votecount++ */\n      dup2\n      sload\n      dup1\n      swap3\n      swap2\n      swap1\n      tag_42\n      swap1\n      tag_43\n      jump\t// in\n    tag_42:\n      swap2\n      swap1\n      pop\n      sstore\n      pop\n        /* \"contracts/Vote.sol\":1048:1082  voted(msg.sender, block.timestamp) */\n      0xc591aa98f3e7d1c3a106f4653e39eba694fcc03ba3c686dfbefbf82f6b06bcea\n        /* \"contracts/Vote.sol\":1054:1064  msg.sender */\n      caller\n        /* \"contracts/Vote.sol\":1066:1081  block.timestamp */\n      timestamp\n        /* \"contracts/Vote.sol\":1048:1082  voted(msg.sender, block.timestamp) */\n      mload(0x40)\n      tag_44\n      swap3\n      swap2\n      swap1\n      tag_45\n      jump\t// in\n    tag_44:\n      mload(0x40)\n      dup1\n      swap2\n      sub\n      swap1\n      log1\n        /* \"contracts/Vote.sol\":666:1089  function vote(uint candidateindex) public {... */\n      pop\n      jump\t// out\n        /* \"contracts/Vote.sol\":161:190  candidate[] public candidates */\n    tag_14:\n      0x00\n      dup2\n      dup2\n      sload\n      dup2\n      lt\n      tag_46\n      jumpi\n      0x00\n      dup1\n      revert\n    tag_46:\n      swap1\n      0x00\n      mstore\n      keccak256(0x00, 0x20)\n      swap1\n      0x02\n      mul\n      add\n      0x00\n      swap2\n      pop\n      swap1\n      pop\n      dup1\n      0x00\n      add\n      dup1\n      sload\n      tag_48\n      swap1\n      tag_49\n      jump\t// in\n    tag_48:\n      dup1\n      0x1f\n      add\n      0x20\n      dup1\n      swap2\n      div\n      mul\n      0x20\n      add\n      mload(0x40)\n      swap1\n      dup2\n      add\n      0x40\n      mstore\n      dup1\n      swap3\n      swap2\n      swap1\n      dup2\n      dup2\n      mstore\n      0x20\n      add\n      dup3\n      dup1\n      sload\n      tag_50\n      swap1\n      tag_49\n      jump\t// in\n    tag_50:\n      dup1\n      iszero\n      tag_51\n      jumpi\n      dup1\n      0x1f\n      lt\n      tag_52\n      jumpi\n      0x0100\n      dup1\n      dup4\n      sload\n      div\n      mul\n      dup4\n      mstore\n      swap2\n      0x20\n      add\n      swap2\n      jump(tag_51)\n    tag_52:\n      dup3\n      add\n      swap2\n      swap1\n      0x00\n      mstore\n      keccak256(0x00, 0x20)\n      swap1\n    tag_53:\n      dup2\n      sload\n      dup2\n      mstore\n      swap1\n      0x01\n      add\n      swap1\n      0x20\n      add\n      dup1\n      dup4\n      gt\n      tag_53\n      jumpi\n      dup3\n      swap1\n      sub\n      0x1f\n      and\n      dup3\n      add\n      swap2\n    tag_51:\n      pop\n      pop\n      pop\n      pop\n      pop\n      swap1\n      dup1\n      0x01\n      add\n      sload\n      swap1\n      pop\n      dup3\n      jump\t// out\n        /* \"contracts/Vote.sol\":196:235  mapping(address => bool) public hasvote */\n    tag_20:\n      mstore(0x20, 0x01)\n      dup1\n      0x00\n      mstore\n      keccak256(0x00, 0x40)\n      0x00\n      swap2\n      pop\n      sload\n      swap1\n      0x0100\n      exp\n      swap1\n      div\n      0xff\n      and\n      dup2\n      jump\t// out\n        /* \"contracts/Vote.sol\":407:611  function proposecandidate(string memory name) public { //this is transactional function ... */\n    tag_26:\n        /* \"contracts/Vote.sol\":504:514  candidates */\n      0x00\n        /* \"contracts/Vote.sol\":520:538  candidate(name, 0) */\n      mload(0x40)\n      dup1\n      0x40\n      add\n      0x40\n      mstore\n      dup1\n        /* \"contracts/Vote.sol\":530:534  name */\n      dup4\n        /* \"contracts/Vote.sol\":520:538  candidate(name, 0) */\n      dup2\n      mstore\n      0x20\n      add\n        /* \"contracts/Vote.sol\":536:537  0 */\n      0x00\n        /* \"contracts/Vote.sol\":520:538  candidate(name, 0) */\n      dup2\n      mstore\n      pop\n        /* \"contracts/Vote.sol\":504:539  candidates.push(candidate(name, 0)) */\n      swap1\n      dup1\n      0x01\n      dup2\n      sload\n      add\n      dup1\n      dup3\n      sstore\n      dup1\n      swap2\n      pop\n      pop\n      0x01\n      swap1\n      sub\n      swap1\n      0x00\n      mstore\n      keccak256(0x00, 0x20)\n      swap1\n      0x02\n      mul\n      add\n      0x00\n      swap1\n      swap2\n      swap1\n      swap2\n      swap1\n      swap2\n      pop\n      0x00\n      dup3\n      add\n      mload\n      dup2\n      0x00\n      add\n      swap1\n      dup2\n      tag_56\n      swap2\n      swap1\n      tag_57\n      jump\t// in\n    tag_56:\n      pop\n      0x20\n      dup3\n      add\n      mload\n      dup2\n      0x01\n      add\n      sstore\n      pop\n      pop\n        /* \"contracts/Vote.sol\":555:604  NewcandidateProposed(msg.sender, block.timestamp) */\n      0x8b83e76785def4a83e97694f773b79e48bc478b41ed4ba5780c6d44684212b14\n        /* \"contracts/Vote.sol\":576:586  msg.sender */\n      caller\n        /* \"contracts/Vote.sol\":588:603  block.timestamp */\n      timestamp\n        /* \"contracts/Vote.sol\":555:604  NewcandidateProposed(msg.sender, block.timestamp) */\n      mload(0x40)\n      tag_58\n      swap3\n      swap2\n      swap1\n      tag_45\n      jump\t// in\n    tag_58:\n      mload(0x40)\n      dup1\n      swap2\n      sub\n      swap1\n      log1\n        /* \"contracts/Vote.sol\":407:611  function proposecandidate(string memory name) public { //this is transactional function ... */\n      pop\n      jump\t// out\n        /* \"contracts/Vote.sol\":1095:1504  function getwinner() public view returns (string memory name) {... */\n    tag_28:\n        /* \"contracts/Vote.sol\":1137:1155  string memory name */\n      0x60\n        /* \"contracts/Vote.sol\":1165:1178  uint MaxIndex */\n      0x00\n        /* \"contracts/Vote.sol\":1190:1202  uint MaxVote */\n      dup1\n        /* \"contracts/Vote.sol\":1218:1235  uint currentIndex */\n      0x00\n        /* \"contracts/Vote.sol\":1214:1458  for(uint currentIndex = 0; currentIndex < candidates.length; currentIndex++){... */\n    tag_60:\n        /* \"contracts/Vote.sol\":1256:1266  candidates */\n      0x00\n        /* \"contracts/Vote.sol\":1256:1273  candidates.length */\n      dup1\n      sload\n      swap1\n      pop\n        /* \"contracts/Vote.sol\":1241:1253  currentIndex */\n      dup2\n        /* \"contracts/Vote.sol\":1241:1273  currentIndex < candidates.length */\n      lt\n        /* \"contracts/Vote.sol\":1214:1458  for(uint currentIndex = 0; currentIndex < candidates.length; currentIndex++){... */\n      iszero\n      tag_61\n      jumpi\n        /* \"contracts/Vote.sol\":1340:1347  MaxVote */\n      dup2\n        /* \"contracts/Vote.sol\":1303:1313  candidates */\n      0x00\n        /* \"contracts/Vote.sol\":1314:1326  currentIndex */\n      dup3\n        /* \"contracts/Vote.sol\":1303:1327  candidates[currentIndex] */\n      dup2\n      sload\n      dup2\n      lt\n      tag_63\n      jumpi\n      tag_64\n      tag_40\n      jump\t// in\n    tag_64:\n    tag_63:\n      swap1\n      0x00\n      mstore\n      keccak256(0x00, 0x20)\n      swap1\n      0x02\n      mul\n      add\n        /* \"contracts/Vote.sol\":1303:1337  candidates[currentIndex].votecount */\n      0x01\n      add\n      sload\n        /* \"contracts/Vote.sol\":1303:1347  candidates[currentIndex].votecount > MaxVote */\n      gt\n        /* \"contracts/Vote.sol\":1300:1450  if(candidates[currentIndex].votecount > MaxVote){... */\n      iszero\n      tag_66\n      jumpi\n        /* \"contracts/Vote.sol\":1370:1380  candidates */\n      0x00\n        /* \"contracts/Vote.sol\":1381:1393  currentIndex */\n      dup2\n        /* \"contracts/Vote.sol\":1370:1394  candidates[currentIndex] */\n      dup2\n      sload\n      dup2\n      lt\n      tag_67\n      jumpi\n      tag_68\n      tag_40\n      jump\t// in\n    tag_68:\n    tag_67:\n      swap1\n      0x00\n      mstore\n      keccak256(0x00, 0x20)\n      swap1\n      0x02\n      mul\n      add\n        /* \"contracts/Vote.sol\":1370:1404  candidates[currentIndex].votecount */\n      0x01\n      add\n      sload\n        /* \"contracts/Vote.sol\":1360:1404  MaxVote = candidates[currentIndex].votecount */\n      swap2\n      pop\n        /* \"contracts/Vote.sol\":1427:1439  currentIndex */\n      dup1\n        /* \"contracts/Vote.sol\":1416:1439  MaxIndex = currentIndex */\n      swap3\n      pop\n        /* \"contracts/Vote.sol\":1300:1450  if(candidates[currentIndex].votecount > MaxVote){... */\n    tag_66:\n        /* \"contracts/Vote.sol\":1275:1289  currentIndex++ */\n      dup1\n      dup1\n      0x01\n      add\n      swap2\n      pop\n      pop\n        /* \"contracts/Vote.sol\":1214:1458  for(uint currentIndex = 0; currentIndex < candidates.length; currentIndex++){... */\n      jump(tag_60)\n    tag_61:\n      pop\n        /* \"contracts/Vote.sol\":1472:1482  candidates */\n      0x00\n        /* \"contracts/Vote.sol\":1483:1491  MaxIndex */\n      dup3\n        /* \"contracts/Vote.sol\":1472:1492  candidates[MaxIndex] */\n      dup2\n      sload\n      dup2\n      lt\n      tag_70\n      jumpi\n      tag_71\n      tag_40\n      jump\t// in\n    tag_71:\n    tag_70:\n      swap1\n      0x00\n      mstore\n      keccak256(0x00, 0x20)\n      swap1\n      0x02\n      mul\n      add\n        /* \"contracts/Vote.sol\":1472:1497  candidates[MaxIndex].name */\n      0x00\n      add\n        /* \"contracts/Vote.sol\":1465:1497  return candidates[MaxIndex].name */\n      dup1\n      sload\n      tag_73\n      swap1\n      tag_49\n      jump\t// in\n    tag_73:\n      dup1\n      0x1f\n      add\n      0x20\n      dup1\n      swap2\n      div\n      mul\n      0x20\n      add\n      mload(0x40)\n      swap1\n      dup2\n      add\n      0x40\n      mstore\n      dup1\n      swap3\n      swap2\n      swap1\n      dup2\n      dup2\n      mstore\n      0x20\n      add\n      dup3\n      dup1\n      sload\n      tag_74\n      swap1\n      tag_49\n      jump\t// in\n    tag_74:\n      dup1\n      iszero\n      tag_75\n      jumpi\n      dup1\n      0x1f\n      lt\n      tag_76\n      jumpi\n      0x0100\n      dup1\n      dup4\n      sload\n      div\n      mul\n      dup4\n      mstore\n      swap2\n      0x20\n      add\n      swap2\n      jump(tag_75)\n    tag_76:\n      dup3\n      add\n      swap2\n      swap1\n      0x00\n      mstore\n      keccak256(0x00, 0x20)\n      swap1\n    tag_77:\n      dup2\n      sload\n      dup2\n      mstore\n      swap1\n      0x01\n      add\n      swap1\n      0x20\n      add\n      dup1\n      dup4\n      gt\n      tag_77\n      jumpi\n      dup3\n      swap1\n      sub\n      0x1f\n      and\n      dup3\n      add\n      swap2\n    tag_75:\n      pop\n      pop\n      pop\n      pop\n      pop\n      swap3\n      pop\n      pop\n      pop\n        /* \"contracts/Vote.sol\":1095:1504  function getwinner() public view returns (string memory name) {... */\n      swap1\n      jump\t// out\n        /* \"#utility.yul\":7:82   */\n    tag_78:\n        /* \"#utility.yul\":40:46   */\n      0x00\n        /* \"#utility.yul\":73:75   */\n      0x40\n        /* \"#utility.yul\":67:76   */\n      mload\n        /* \"#utility.yul\":57:76   */\n      swap1\n      pop\n        /* \"#utility.yul\":7:82   */\n      swap1\n      jump\t// out\n        /* \"#utility.yul\":88:205   */\n    tag_79:\n        /* \"#utility.yul\":197:198   */\n      0x00\n        /* \"#utility.yul\":194:195   */\n      dup1\n        /* \"#utility.yul\":187:199   */\n      revert\n        /* \"#utility.yul\":211:328   */\n    tag_80:\n        /* \"#utility.yul\":320:321   */\n      0x00\n        /* \"#utility.yul\":317:318   */\n      dup1\n        /* \"#utility.yul\":310:322   */\n      revert\n        /* \"#utility.yul\":334:411   */\n    tag_81:\n        /* \"#utility.yul\":371:378   */\n      0x00\n        /* \"#utility.yul\":400:405   */\n      dup2\n        /* \"#utility.yul\":389:405   */\n      swap1\n      pop\n        /* \"#utility.yul\":334:411   */\n      swap2\n      swap1\n      pop\n      jump\t// out\n        /* \"#utility.yul\":417:539   */\n    tag_82:\n        /* \"#utility.yul\":490:514   */\n      tag_133\n        /* \"#utility.yul\":508:513   */\n      dup2\n        /* \"#utility.yul\":490:514   */\n      tag_81\n      jump\t// in\n    tag_133:\n        /* \"#utility.yul\":483:488   */\n      dup2\n        /* \"#utility.yul\":480:515   */\n      eq\n        /* \"#utility.yul\":470:533   */\n      tag_134\n      jumpi\n        /* \"#utility.yul\":529:530   */\n      0x00\n        /* \"#utility.yul\":526:527   */\n      dup1\n        /* \"#utility.yul\":519:531   */\n      revert\n        /* \"#utility.yul\":470:533   */\n    tag_134:\n        /* \"#utility.yul\":417:539   */\n      pop\n      jump\t// out\n        /* \"#utility.yul\":545:684   */\n    tag_83:\n        /* \"#utility.yul\":591:596   */\n      0x00\n        /* \"#utility.yul\":629:635   */\n      dup2\n        /* \"#utility.yul\":616:636   */\n      calldataload\n        /* \"#utility.yul\":607:636   */\n      swap1\n      pop\n        /* \"#utility.yul\":645:678   */\n      tag_136\n        /* \"#utility.yul\":672:677   */\n      dup2\n        /* \"#utility.yul\":645:678   */\n      tag_82\n      jump\t// in\n    tag_136:\n        /* \"#utility.yul\":545:684   */\n      swap3\n      swap2\n      pop\n      pop\n      jump\t// out\n        /* \"#utility.yul\":690:1019   */\n    tag_10:\n        /* \"#utility.yul\":749:755   */\n      0x00\n        /* \"#utility.yul\":798:800   */\n      0x20\n        /* \"#utility.yul\":786:795   */\n      dup3\n        /* \"#utility.yul\":777:784   */\n      dup5\n        /* \"#utility.yul\":773:796   */\n      sub\n        /* \"#utility.yul\":769:801   */\n      slt\n        /* \"#utility.yul\":766:885   */\n      iszero\n      tag_138\n      jumpi\n        /* \"#utility.yul\":804:883   */\n      tag_139\n      tag_79\n      jump\t// in\n    tag_139:\n        /* \"#utility.yul\":766:885   */\n    tag_138:\n        /* \"#utility.yul\":924:925   */\n      0x00\n        /* \"#utility.yul\":949:1002   */\n      tag_140\n        /* \"#utility.yul\":994:1001   */\n      dup5\n        /* \"#utility.yul\":985:991   */\n      dup3\n        /* \"#utility.yul\":974:983   */\n      dup6\n        /* \"#utility.yul\":970:992   */\n      add\n        /* \"#utility.yul\":949:1002   */\n      tag_83\n      jump\t// in\n    tag_140:\n        /* \"#utility.yul\":939:1002   */\n      swap2\n      pop\n        /* \"#utility.yul\":895:1012   */\n      pop\n        /* \"#utility.yul\":690:1019   */\n      swap3\n      swap2\n      pop\n      pop\n      jump\t// out\n        /* \"#utility.yul\":1025:1124   */\n    tag_84:\n        /* \"#utility.yul\":1077:1083   */\n      0x00\n        /* \"#utility.yul\":1111:1116   */\n      dup2\n        /* \"#utility.yul\":1105:1117   */\n      mload\n        /* \"#utility.yul\":1095:1117   */\n      swap1\n      pop\n        /* \"#utility.yul\":1025:1124   */\n      swap2\n      swap1\n      pop\n      jump\t// out\n        /* \"#utility.yul\":1130:1299   */\n    tag_85:\n        /* \"#utility.yul\":1214:1225   */\n      0x00\n        /* \"#utility.yul\":1248:1254   */\n      dup3\n        /* \"#utility.yul\":1243:1246   */\n      dup3\n        /* \"#utility.yul\":1236:1255   */\n      mstore\n        /* \"#utility.yul\":1288:1292   */\n      0x20\n        /* \"#utility.yul\":1283:1286   */\n      dup3\n        /* \"#utility.yul\":1279:1293   */\n      add\n        /* \"#utility.yul\":1264:1293   */\n      swap1\n      pop\n        /* \"#utility.yul\":1130:1299   */\n      swap3\n      swap2\n      pop\n      pop\n      jump\t// out\n        /* \"#utility.yul\":1305:1551   */\n    tag_86:\n        /* \"#utility.yul\":1386:1387   */\n      0x00\n        /* \"#utility.yul\":1396:1509   */\n    tag_144:\n        /* \"#utility.yul\":1410:1416   */\n      dup4\n        /* \"#utility.yul\":1407:1408   */\n      dup2\n        /* \"#utility.yul\":1404:1417   */\n      lt\n        /* \"#utility.yul\":1396:1509   */\n      iszero\n      tag_146\n      jumpi\n        /* \"#utility.yul\":1495:1496   */\n      dup1\n        /* \"#utility.yul\":1490:1493   */\n      dup3\n        /* \"#utility.yul\":1486:1497   */\n      add\n        /* \"#utility.yul\":1480:1498   */\n      mload\n        /* \"#utility.yul\":1476:1477   */\n      dup2\n        /* \"#utility.yul\":1471:1474   */\n      dup5\n        /* \"#utility.yul\":1467:1478   */\n      add\n        /* \"#utility.yul\":1460:1499   */\n      mstore\n        /* \"#utility.yul\":1432:1434   */\n      0x20\n        /* \"#utility.yul\":1429:1430   */\n      dup2\n        /* \"#utility.yul\":1425:1435   */\n      add\n        /* \"#utility.yul\":1420:1435   */\n      swap1\n      pop\n        /* \"#utility.yul\":1396:1509   */\n      jump(tag_144)\n    tag_146:\n        /* \"#utility.yul\":1543:1544   */\n      0x00\n        /* \"#utility.yul\":1534:1540   */\n      dup5\n        /* \"#utility.yul\":1529:1532   */\n      dup5\n        /* \"#utility.yul\":1525:1541   */\n      add\n        /* \"#utility.yul\":1518:1545   */\n      mstore\n        /* \"#utility.yul\":1367:1551   */\n      pop\n        /* \"#utility.yul\":1305:1551   */\n      pop\n      pop\n      pop\n      jump\t// out\n        /* \"#utility.yul\":1557:1659   */\n    tag_87:\n        /* \"#utility.yul\":1598:1604   */\n      0x00\n        /* \"#utility.yul\":1649:1651   */\n      0x1f\n        /* \"#utility.yul\":1645:1652   */\n      not\n        /* \"#utility.yul\":1640:1642   */\n      0x1f\n        /* \"#utility.yul\":1633:1638   */\n      dup4\n        /* \"#utility.yul\":1629:1643   */\n      add\n        /* \"#utility.yul\":1625:1653   */\n      and\n        /* \"#utility.yul\":1615:1653   */\n      swap1\n      pop\n        /* \"#utility.yul\":1557:1659   */\n      swap2\n      swap1\n      pop\n      jump\t// out\n        /* \"#utility.yul\":1665:2042   */\n    tag_88:\n        /* \"#utility.yul\":1753:1756   */\n      0x00\n        /* \"#utility.yul\":1781:1820   */\n      tag_149\n        /* \"#utility.yul\":1814:1819   */\n      dup3\n        /* \"#utility.yul\":1781:1820   */\n      tag_84\n      jump\t// in\n    tag_149:\n        /* \"#utility.yul\":1836:1907   */\n      tag_150\n        /* \"#utility.yul\":1900:1906   */\n      dup2\n        /* \"#utility.yul\":1895:1898   */\n      dup6\n        /* \"#utility.yul\":1836:1907   */\n      tag_85\n      jump\t// in\n    tag_150:\n        /* \"#utility.yul\":1829:1907   */\n      swap4\n      pop\n        /* \"#utility.yul\":1916:1981   */\n      tag_151\n        /* \"#utility.yul\":1974:1980   */\n      dup2\n        /* \"#utility.yul\":1969:1972   */\n      dup6\n        /* \"#utility.yul\":1962:1966   */\n      0x20\n        /* \"#utility.yul\":1955:1960   */\n      dup7\n        /* \"#utility.yul\":1951:1967   */\n      add\n        /* \"#utility.yul\":1916:1981   */\n      tag_86\n      jump\t// in\n    tag_151:\n        /* \"#utility.yul\":2006:2035   */\n      tag_152\n        /* \"#utility.yul\":2028:2034   */\n      dup2\n        /* \"#utility.yul\":2006:2035   */\n      tag_87\n      jump\t// in\n    tag_152:\n        /* \"#utility.yul\":2001:2004   */\n      dup5\n        /* \"#utility.yul\":1997:2036   */\n      add\n        /* \"#utility.yul\":1990:2036   */\n      swap2\n      pop\n        /* \"#utility.yul\":1757:2042   */\n      pop\n        /* \"#utility.yul\":1665:2042   */\n      swap3\n      swap2\n      pop\n      pop\n      jump\t// out\n        /* \"#utility.yul\":2048:2166   */\n    tag_89:\n        /* \"#utility.yul\":2135:2159   */\n      tag_154\n        /* \"#utility.yul\":2153:2158   */\n      dup2\n        /* \"#utility.yul\":2135:2159   */\n      tag_81\n      jump\t// in\n    tag_154:\n        /* \"#utility.yul\":2130:2133   */\n      dup3\n        /* \"#utility.yul\":2123:2160   */\n      mstore\n        /* \"#utility.yul\":2048:2166   */\n      pop\n      pop\n      jump\t// out\n        /* \"#utility.yul\":2172:2595   */\n    tag_16:\n        /* \"#utility.yul\":2313:2317   */\n      0x00\n        /* \"#utility.yul\":2351:2353   */\n      0x40\n        /* \"#utility.yul\":2340:2349   */\n      dup3\n        /* \"#utility.yul\":2336:2354   */\n      add\n        /* \"#utility.yul\":2328:2354   */\n      swap1\n      pop\n        /* \"#utility.yul\":2400:2409   */\n      dup2\n        /* \"#utility.yul\":2394:2398   */\n      dup2\n        /* \"#utility.yul\":2390:2410   */\n      sub\n        /* \"#utility.yul\":2386:2387   */\n      0x00\n        /* \"#utility.yul\":2375:2384   */\n      dup4\n        /* \"#utility.yul\":2371:2388   */\n      add\n        /* \"#utility.yul\":2364:2411   */\n      mstore\n        /* \"#utility.yul\":2428:2506   */\n      tag_156\n        /* \"#utility.yul\":2501:2505   */\n      dup2\n        /* \"#utility.yul\":2492:2498   */\n      dup6\n        /* \"#utility.yul\":2428:2506   */\n      tag_88\n      jump\t// in\n    tag_156:\n        /* \"#utility.yul\":2420:2506   */\n      swap1\n      pop\n        /* \"#utility.yul\":2516:2588   */\n      tag_157\n        /* \"#utility.yul\":2584:2586   */\n      0x20\n        /* \"#utility.yul\":2573:2582   */\n      dup4\n        /* \"#utility.yul\":2569:2587   */\n      add\n        /* \"#utility.yul\":2560:2566   */\n      dup5\n        /* \"#utility.yul\":2516:2588   */\n      tag_89\n      jump\t// in\n    tag_157:\n        /* \"#utility.yul\":2172:2595   */\n      swap4\n      swap3\n      pop\n      pop\n      pop\n      jump\t// out\n        /* \"#utility.yul\":2601:2727   */\n    tag_90:\n        /* \"#utility.yul\":2638:2645   */\n      0x00\n        /* \"#utility.yul\":2678:2720   */\n      0xffffffffffffffffffffffffffffffffffffffff\n        /* \"#utility.yul\":2671:2676   */\n      dup3\n        /* \"#utility.yul\":2667:2721   */\n      and\n        /* \"#utility.yul\":2656:2721   */\n      swap1\n      pop\n        /* \"#utility.yul\":2601:2727   */\n      swap2\n      swap1\n      pop\n      jump\t// out\n        /* \"#utility.yul\":2733:2829   */\n    tag_91:\n        /* \"#utility.yul\":2770:2777   */\n      0x00\n        /* \"#utility.yul\":2799:2823   */\n      tag_160\n        /* \"#utility.yul\":2817:2822   */\n      dup3\n        /* \"#utility.yul\":2799:2823   */\n      tag_90\n      jump\t// in\n    tag_160:\n        /* \"#utility.yul\":2788:2823   */\n      swap1\n      pop\n        /* \"#utility.yul\":2733:2829   */\n      swap2\n      swap1\n      pop\n      jump\t// out\n        /* \"#utility.yul\":2835:2957   */\n    tag_92:\n        /* \"#utility.yul\":2908:2932   */\n      tag_162\n        /* \"#utility.yul\":2926:2931   */\n      dup2\n        /* \"#utility.yul\":2908:2932   */\n      tag_91\n      jump\t// in\n    tag_162:\n        /* \"#utility.yul\":2901:2906   */\n      dup2\n        /* \"#utility.yul\":2898:2933   */\n      eq\n        /* \"#utility.yul\":2888:2951   */\n      tag_163\n      jumpi\n        /* \"#utility.yul\":2947:2948   */\n      0x00\n        /* \"#utility.yul\":2944:2945   */\n      dup1\n        /* \"#utility.yul\":2937:2949   */\n      revert\n        /* \"#utility.yul\":2888:2951   */\n    tag_163:\n        /* \"#utility.yul\":2835:2957   */\n      pop\n      jump\t// out\n        /* \"#utility.yul\":2963:3102   */\n    tag_93:\n        /* \"#utility.yul\":3009:3014   */\n      0x00\n        /* \"#utility.yul\":3047:3053   */\n      dup2\n        /* \"#utility.yul\":3034:3054   */\n      calldataload\n        /* \"#utility.yul\":3025:3054   */\n      swap1\n      pop\n        /* \"#utility.yul\":3063:3096   */\n      tag_165\n        /* \"#utility.yul\":3090:3095   */\n      dup2\n        /* \"#utility.yul\":3063:3096   */\n      tag_92\n      jump\t// in\n    tag_165:\n        /* \"#utility.yul\":2963:3102   */\n      swap3\n      swap2\n      pop\n      pop\n      jump\t// out\n        /* \"#utility.yul\":3108:3437   */\n    tag_19:\n        /* \"#utility.yul\":3167:3173   */\n      0x00\n        /* \"#utility.yul\":3216:3218   */\n      0x20\n        /* \"#utility.yul\":3204:3213   */\n      dup3\n        /* \"#utility.yul\":3195:3202   */\n      dup5\n        /* \"#utility.yul\":3191:3214   */\n      sub\n        /* \"#utility.yul\":3187:3219   */\n      slt\n        /* \"#utility.yul\":3184:3303   */\n      iszero\n      tag_167\n      jumpi\n        /* \"#utility.yul\":3222:3301   */\n      tag_168\n      tag_79\n      jump\t// in\n    tag_168:\n        /* \"#utility.yul\":3184:3303   */\n    tag_167:\n        /* \"#utility.yul\":3342:3343   */\n      0x00\n        /* \"#utility.yul\":3367:3420   */\n      tag_169\n        /* \"#utility.yul\":3412:3419   */\n      dup5\n        /* \"#utility.yul\":3403:3409   */\n      dup3\n        /* \"#utility.yul\":3392:3401   */\n      dup6\n        /* \"#utility.yul\":3388:3410   */\n      add\n        /* \"#utility.yul\":3367:3420   */\n      tag_93\n      jump\t// in\n    tag_169:\n        /* \"#utility.yul\":3357:3420   */\n      swap2\n      pop\n        /* \"#utility.yul\":3313:3430   */\n      pop\n        /* \"#utility.yul\":3108:3437   */\n      swap3\n      swap2\n      pop\n      pop\n      jump\t// out\n        /* \"#utility.yul\":3443:3533   */\n    tag_94:\n        /* \"#utility.yul\":3477:3484   */\n      0x00\n        /* \"#utility.yul\":3520:3525   */\n      dup2\n        /* \"#utility.yul\":3513:3526   */\n      iszero\n        /* \"#utility.yul\":3506:3527   */\n      iszero\n        /* \"#utility.yul\":3495:3527   */\n      swap1\n      pop\n        /* \"#utility.yul\":3443:3533   */\n      swap2\n      swap1\n      pop\n      jump\t// out\n        /* \"#utility.yul\":3539:3648   */\n    tag_95:\n        /* \"#utility.yul\":3620:3641   */\n      tag_172\n        /* \"#utility.yul\":3635:3640   */\n      dup2\n        /* \"#utility.yul\":3620:3641   */\n      tag_94\n      jump\t// in\n    tag_172:\n        /* \"#utility.yul\":3615:3618   */\n      dup3\n        /* \"#utility.yul\":3608:3642   */\n      mstore\n        /* \"#utility.yul\":3539:3648   */\n      pop\n      pop\n      jump\t// out\n        /* \"#utility.yul\":3654:3864   */\n    tag_22:\n        /* \"#utility.yul\":3741:3745   */\n      0x00\n        /* \"#utility.yul\":3779:3781   */\n      0x20\n        /* \"#utility.yul\":3768:3777   */\n      dup3\n        /* \"#utility.yul\":3764:3782   */\n      add\n        /* \"#utility.yul\":3756:3782   */\n      swap1\n      pop\n        /* \"#utility.yul\":3792:3857   */\n      tag_174\n        /* \"#utility.yul\":3854:3855   */\n      0x00\n        /* \"#utility.yul\":3843:3852   */\n      dup4\n        /* \"#utility.yul\":3839:3856   */\n      add\n        /* \"#utility.yul\":3830:3836   */\n      dup5\n        /* \"#utility.yul\":3792:3857   */\n      tag_95\n      jump\t// in\n    tag_174:\n        /* \"#utility.yul\":3654:3864   */\n      swap3\n      swap2\n      pop\n      pop\n      jump\t// out\n        /* \"#utility.yul\":3870:3987   */\n    tag_96:\n        /* \"#utility.yul\":3979:3980   */\n      0x00\n        /* \"#utility.yul\":3976:3977   */\n      dup1\n        /* \"#utility.yul\":3969:3981   */\n      revert\n        /* \"#utility.yul\":3993:4110   */\n    tag_97:\n        /* \"#utility.yul\":4102:4103   */\n      0x00\n        /* \"#utility.yul\":4099:4100   */\n      dup1\n        /* \"#utility.yul\":4092:4104   */\n      revert\n        /* \"#utility.yul\":4116:4296   */\n    tag_98:\n        /* \"#utility.yul\":4164:4241   */\n      0x4e487b7100000000000000000000000000000000000000000000000000000000\n        /* \"#utility.yul\":4161:4162   */\n      0x00\n        /* \"#utility.yul\":4154:4242   */\n      mstore\n        /* \"#utility.yul\":4261:4265   */\n      0x41\n        /* \"#utility.yul\":4258:4259   */\n      0x04\n        /* \"#utility.yul\":4251:4266   */\n      mstore\n        /* \"#utility.yul\":4285:4289   */\n      0x24\n        /* \"#utility.yul\":4282:4283   */\n      0x00\n        /* \"#utility.yul\":4275:4290   */\n      revert\n        /* \"#utility.yul\":4302:4583   */\n    tag_99:\n        /* \"#utility.yul\":4385:4412   */\n      tag_179\n        /* \"#utility.yul\":4407:4411   */\n      dup3\n        /* \"#utility.yul\":4385:4412   */\n      tag_87\n      jump\t// in\n    tag_179:\n        /* \"#utility.yul\":4377:4383   */\n      dup2\n        /* \"#utility.yul\":4373:4413   */\n      add\n        /* \"#utility.yul\":4515:4521   */\n      dup2\n        /* \"#utility.yul\":4503:4513   */\n      dup2\n        /* \"#utility.yul\":4500:4522   */\n      lt\n        /* \"#utility.yul\":4479:4497   */\n      0xffffffffffffffff\n        /* \"#utility.yul\":4467:4477   */\n      dup3\n        /* \"#utility.yul\":4464:4498   */\n      gt\n        /* \"#utility.yul\":4461:4523   */\n      or\n        /* \"#utility.yul\":4458:4546   */\n      iszero\n      tag_180\n      jumpi\n        /* \"#utility.yul\":4526:4544   */\n      tag_181\n      tag_98\n      jump\t// in\n    tag_181:\n        /* \"#utility.yul\":4458:4546   */\n    tag_180:\n        /* \"#utility.yul\":4566:4576   */\n      dup1\n        /* \"#utility.yul\":4562:4564   */\n      0x40\n        /* \"#utility.yul\":4555:4577   */\n      mstore\n        /* \"#utility.yul\":4345:4583   */\n      pop\n        /* \"#utility.yul\":4302:4583   */\n      pop\n      pop\n      jump\t// out\n        /* \"#utility.yul\":4589:4718   */\n    tag_100:\n        /* \"#utility.yul\":4623:4629   */\n      0x00\n        /* \"#utility.yul\":4650:4670   */\n      tag_183\n      tag_78\n      jump\t// in\n    tag_183:\n        /* \"#utility.yul\":4640:4670   */\n      swap1\n      pop\n        /* \"#utility.yul\":4679:4712   */\n      tag_184\n        /* \"#utility.yul\":4707:4711   */\n      dup3\n        /* \"#utility.yul\":4699:4705   */\n      dup3\n        /* \"#utility.yul\":4679:4712   */\n      tag_99\n      jump\t// in\n    tag_184:\n        /* \"#utility.yul\":4589:4718   */\n      swap2\n      swap1\n      pop\n      jump\t// out\n        /* \"#utility.yul\":4724:5032   */\n    tag_101:\n        /* \"#utility.yul\":4786:4790   */\n      0x00\n        /* \"#utility.yul\":4876:4894   */\n      0xffffffffffffffff\n        /* \"#utility.yul\":4868:4874   */\n      dup3\n        /* \"#utility.yul\":4865:4895   */\n      gt\n        /* \"#utility.yul\":4862:4918   */\n      iszero\n      tag_186\n      jumpi\n        /* \"#utility.yul\":4898:4916   */\n      tag_187\n      tag_98\n      jump\t// in\n    tag_187:\n        /* \"#utility.yul\":4862:4918   */\n    tag_186:\n        /* \"#utility.yul\":4936:4965   */\n      tag_188\n        /* \"#utility.yul\":4958:4964   */\n      dup3\n        /* \"#utility.yul\":4936:4965   */\n      tag_87\n      jump\t// in\n    tag_188:\n        /* \"#utility.yul\":4928:4965   */\n      swap1\n      pop\n        /* \"#utility.yul\":5020:5024   */\n      0x20\n        /* \"#utility.yul\":5014:5018   */\n      dup2\n        /* \"#utility.yul\":5010:5025   */\n      add\n        /* \"#utility.yul\":5002:5025   */\n      swap1\n      pop\n        /* \"#utility.yul\":4724:5032   */\n      swap2\n      swap1\n      pop\n      jump\t// out\n        /* \"#utility.yul\":5038:5184   */\n    tag_102:\n        /* \"#utility.yul\":5135:5141   */\n      dup3\n        /* \"#utility.yul\":5130:5133   */\n      dup2\n        /* \"#utility.yul\":5125:5128   */\n      dup4\n        /* \"#utility.yul\":5112:5142   */\n      calldatacopy\n        /* \"#utility.yul\":5176:5177   */\n      0x00\n        /* \"#utility.yul\":5167:5173   */\n      dup4\n        /* \"#utility.yul\":5162:5165   */\n      dup4\n        /* \"#utility.yul\":5158:5174   */\n      add\n        /* \"#utility.yul\":5151:5178   */\n      mstore\n        /* \"#utility.yul\":5038:5184   */\n      pop\n      pop\n      pop\n      jump\t// out\n        /* \"#utility.yul\":5190:5615   */\n    tag_103:\n        /* \"#utility.yul\":5268:5273   */\n      0x00\n        /* \"#utility.yul\":5293:5359   */\n      tag_191\n        /* \"#utility.yul\":5309:5358   */\n      tag_192\n        /* \"#utility.yul\":5351:5357   */\n      dup5\n        /* \"#utility.yul\":5309:5358   */\n      tag_101\n      jump\t// in\n    tag_192:\n        /* \"#utility.yul\":5293:5359   */\n      tag_100\n      jump\t// in\n    tag_191:\n        /* \"#utility.yul\":5284:5359   */\n      swap1\n      pop\n        /* \"#utility.yul\":5382:5388   */\n      dup3\n        /* \"#utility.yul\":5375:5380   */\n      dup2\n        /* \"#utility.yul\":5368:5389   */\n      mstore\n        /* \"#utility.yul\":5420:5424   */\n      0x20\n        /* \"#utility.yul\":5413:5418   */\n      dup2\n        /* \"#utility.yul\":5409:5425   */\n      add\n        /* \"#utility.yul\":5458:5461   */\n      dup5\n        /* \"#utility.yul\":5449:5455   */\n      dup5\n        /* \"#utility.yul\":5444:5447   */\n      dup5\n        /* \"#utility.yul\":5440:5456   */\n      add\n        /* \"#utility.yul\":5437:5462   */\n      gt\n        /* \"#utility.yul\":5434:5546   */\n      iszero\n      tag_193\n      jumpi\n        /* \"#utility.yul\":5465:5544   */\n      tag_194\n      tag_97\n      jump\t// in\n    tag_194:\n        /* \"#utility.yul\":5434:5546   */\n    tag_193:\n        /* \"#utility.yul\":5555:5609   */\n      tag_195\n        /* \"#utility.yul\":5602:5608   */\n      dup5\n        /* \"#utility.yul\":5597:5600   */\n      dup3\n        /* \"#utility.yul\":5592:5595   */\n      dup6\n        /* \"#utility.yul\":5555:5609   */\n      tag_102\n      jump\t// in\n    tag_195:\n        /* \"#utility.yul\":5274:5615   */\n      pop\n        /* \"#utility.yul\":5190:5615   */\n      swap4\n      swap3\n      pop\n      pop\n      pop\n      jump\t// out\n        /* \"#utility.yul\":5635:5975   */\n    tag_104:\n        /* \"#utility.yul\":5691:5696   */\n      0x00\n        /* \"#utility.yul\":5740:5743   */\n      dup3\n        /* \"#utility.yul\":5733:5737   */\n      0x1f\n        /* \"#utility.yul\":5725:5731   */\n      dup4\n        /* \"#utility.yul\":5721:5738   */\n      add\n        /* \"#utility.yul\":5717:5744   */\n      slt\n        /* \"#utility.yul\":5707:5829   */\n      tag_197\n      jumpi\n        /* \"#utility.yul\":5748:5827   */\n      tag_198\n      tag_96\n      jump\t// in\n    tag_198:\n        /* \"#utility.yul\":5707:5829   */\n    tag_197:\n        /* \"#utility.yul\":5865:5871   */\n      dup2\n        /* \"#utility.yul\":5852:5872   */\n      calldataload\n        /* \"#utility.yul\":5890:5969   */\n      tag_199\n        /* \"#utility.yul\":5965:5968   */\n      dup5\n        /* \"#utility.yul\":5957:5963   */\n      dup3\n        /* \"#utility.yul\":5950:5954   */\n      0x20\n        /* \"#utility.yul\":5942:5948   */\n      dup7\n        /* \"#utility.yul\":5938:5955   */\n      add\n        /* \"#utility.yul\":5890:5969   */\n      tag_103\n      jump\t// in\n    tag_199:\n        /* \"#utility.yul\":5881:5969   */\n      swap2\n      pop\n        /* \"#utility.yul\":5697:5975   */\n      pop\n        /* \"#utility.yul\":5635:5975   */\n      swap3\n      swap2\n      pop\n      pop\n      jump\t// out\n        /* \"#utility.yul\":5981:6490   */\n    tag_25:\n        /* \"#utility.yul\":6050:6056   */\n      0x00\n        /* \"#utility.yul\":6099:6101   */\n      0x20\n        /* \"#utility.yul\":6087:6096   */\n      dup3\n        /* \"#utility.yul\":6078:6085   */\n      dup5\n        /* \"#utility.yul\":6074:6097   */\n      sub\n        /* \"#utility.yul\":6070:6102   */\n      slt\n        /* \"#utility.yul\":6067:6186   */\n      iszero\n      tag_201\n      jumpi\n        /* \"#utility.yul\":6105:6184   */\n      tag_202\n      tag_79\n      jump\t// in\n    tag_202:\n        /* \"#utility.yul\":6067:6186   */\n    tag_201:\n        /* \"#utility.yul\":6253:6254   */\n      0x00\n        /* \"#utility.yul\":6242:6251   */\n      dup3\n        /* \"#utility.yul\":6238:6255   */\n      add\n        /* \"#utility.yul\":6225:6256   */\n      calldataload\n        /* \"#utility.yul\":6283:6301   */\n      0xffffffffffffffff\n        /* \"#utility.yul\":6275:6281   */\n      dup2\n        /* \"#utility.yul\":6272:6302   */\n      gt\n        /* \"#utility.yul\":6269:6386   */\n      iszero\n      tag_203\n      jumpi\n        /* \"#utility.yul\":6305:6384   */\n      tag_204\n      tag_80\n      jump\t// in\n    tag_204:\n        /* \"#utility.yul\":6269:6386   */\n    tag_203:\n        /* \"#utility.yul\":6410:6473   */\n      tag_205\n        /* \"#utility.yul\":6465:6472   */\n      dup5\n        /* \"#utility.yul\":6456:6462   */\n      dup3\n        /* \"#utility.yul\":6445:6454   */\n      dup6\n        /* \"#utility.yul\":6441:6463   */\n      add\n        /* \"#utility.yul\":6410:6473   */\n      tag_104\n      jump\t// in\n    tag_205:\n        /* \"#utility.yul\":6400:6473   */\n      swap2\n      pop\n        /* \"#utility.yul\":6196:6483   */\n      pop\n        /* \"#utility.yul\":5981:6490   */\n      swap3\n      swap2\n      pop\n      pop\n      jump\t// out\n        /* \"#utility.yul\":6496:6809   */\n    tag_30:\n        /* \"#utility.yul\":6609:6613   */\n      0x00\n        /* \"#utility.yul\":6647:6649   */\n      0x20\n        /* \"#utility.yul\":6636:6645   */\n      dup3\n        /* \"#utility.yul\":6632:6650   */\n      add\n        /* \"#utility.yul\":6624:6650   */\n      swap1\n      pop\n        /* \"#utility.yul\":6696:6705   */\n      dup2\n        /* \"#utility.yul\":6690:6694   */\n      dup2\n        /* \"#utility.yul\":6686:6706   */\n      sub\n        /* \"#utility.yul\":6682:6683   */\n      0x00\n        /* \"#utility.yul\":6671:6680   */\n      dup4\n        /* \"#utility.yul\":6667:6684   */\n      add\n        /* \"#utility.yul\":6660:6707   */\n      mstore\n        /* \"#utility.yul\":6724:6802   */\n      tag_207\n        /* \"#utility.yul\":6797:6801   */\n      dup2\n        /* \"#utility.yul\":6788:6794   */\n      dup5\n        /* \"#utility.yul\":6724:6802   */\n      tag_88\n      jump\t// in\n    tag_207:\n        /* \"#utility.yul\":6716:6802   */\n      swap1\n      pop\n        /* \"#utility.yul\":6496:6809   */\n      swap3\n      swap2\n      pop\n      pop\n      jump\t// out\n        /* \"#utility.yul\":6815:6986   */\n    tag_105:\n        /* \"#utility.yul\":6955:6978   */\n      0x596f75204861766520416c726561647920566f74650000000000000000000000\n        /* \"#utility.yul\":6951:6952   */\n      0x00\n        /* \"#utility.yul\":6943:6949   */\n      dup3\n        /* \"#utility.yul\":6939:6953   */\n      add\n        /* \"#utility.yul\":6932:6979   */\n      mstore\n        /* \"#utility.yul\":6815:6986   */\n      pop\n      jump\t// out\n        /* \"#utility.yul\":6992:7358   */\n    tag_106:\n        /* \"#utility.yul\":7134:7137   */\n      0x00\n        /* \"#utility.yul\":7155:7222   */\n      tag_210\n        /* \"#utility.yul\":7219:7221   */\n      0x15\n        /* \"#utility.yul\":7214:7217   */\n      dup4\n        /* \"#utility.yul\":7155:7222   */\n      tag_85\n      jump\t// in\n    tag_210:\n        /* \"#utility.yul\":7148:7222   */\n      swap2\n      pop\n        /* \"#utility.yul\":7231:7324   */\n      tag_211\n        /* \"#utility.yul\":7320:7323   */\n      dup3\n        /* \"#utility.yul\":7231:7324   */\n      tag_105\n      jump\t// in\n    tag_211:\n        /* \"#utility.yul\":7349:7351   */\n      0x20\n        /* \"#utility.yul\":7344:7347   */\n      dup3\n        /* \"#utility.yul\":7340:7352   */\n      add\n        /* \"#utility.yul\":7333:7352   */\n      swap1\n      pop\n        /* \"#utility.yul\":6992:7358   */\n      swap2\n      swap1\n      pop\n      jump\t// out\n        /* \"#utility.yul\":7364:7783   */\n    tag_34:\n        /* \"#utility.yul\":7530:7534   */\n      0x00\n        /* \"#utility.yul\":7568:7570   */\n      0x20\n        /* \"#utility.yul\":7557:7566   */\n      dup3\n        /* \"#utility.yul\":7553:7571   */\n      add\n        /* \"#utility.yul\":7545:7571   */\n      swap1\n      pop\n        /* \"#utility.yul\":7617:7626   */\n      dup2\n        /* \"#utility.yul\":7611:7615   */\n      dup2\n        /* \"#utility.yul\":7607:7627   */\n      sub\n        /* \"#utility.yul\":7603:7604   */\n      0x00\n        /* \"#utility.yul\":7592:7601   */\n      dup4\n        /* \"#utility.yul\":7588:7605   */\n      add\n        /* \"#utility.yul\":7581:7628   */\n      mstore\n        /* \"#utility.yul\":7645:7776   */\n      tag_213\n        /* \"#utility.yul\":7771:7775   */\n      dup2\n        /* \"#utility.yul\":7645:7776   */\n      tag_106\n      jump\t// in\n    tag_213:\n        /* \"#utility.yul\":7637:7776   */\n      swap1\n      pop\n        /* \"#utility.yul\":7364:7783   */\n      swap2\n      swap1\n      pop\n      jump\t// out\n        /* \"#utility.yul\":7789:7962   */\n    tag_107:\n        /* \"#utility.yul\":7929:7954   */\n      0x496e76616c69642043616e64696461746520496e646578000000000000000000\n        /* \"#utility.yul\":7925:7926   */\n      0x00\n        /* \"#utility.yul\":7917:7923   */\n      dup3\n        /* \"#utility.yul\":7913:7927   */\n      add\n        /* \"#utility.yul\":7906:7955   */\n      mstore\n        /* \"#utility.yul\":7789:7962   */\n      pop\n      jump\t// out\n        /* \"#utility.yul\":7968:8334   */\n    tag_108:\n        /* \"#utility.yul\":8110:8113   */\n      0x00\n        /* \"#utility.yul\":8131:8198   */\n      tag_216\n        /* \"#utility.yul\":8195:8197   */\n      0x17\n        /* \"#utility.yul\":8190:8193   */\n      dup4\n        /* \"#utility.yul\":8131:8198   */\n      tag_85\n      jump\t// in\n    tag_216:\n        /* \"#utility.yul\":8124:8198   */\n      swap2\n      pop\n        /* \"#utility.yul\":8207:8300   */\n      tag_217\n        /* \"#utility.yul\":8296:8299   */\n      dup3\n        /* \"#utility.yul\":8207:8300   */\n      tag_107\n      jump\t// in\n    tag_217:\n        /* \"#utility.yul\":8325:8327   */\n      0x20\n        /* \"#utility.yul\":8320:8323   */\n      dup3\n        /* \"#utility.yul\":8316:8328   */\n      add\n        /* \"#utility.yul\":8309:8328   */\n      swap1\n      pop\n        /* \"#utility.yul\":7968:8334   */\n      swap2\n      swap1\n      pop\n      jump\t// out\n        /* \"#utility.yul\":8340:8759   */\n    tag_37:\n        /* \"#utility.yul\":8506:8510   */\n      0x00\n        /* \"#utility.yul\":8544:8546   */\n      0x20\n        /* \"#utility.yul\":8533:8542   */\n      dup3\n        /* \"#utility.yul\":8529:8547   */\n      add\n        /* \"#utility.yul\":8521:8547   */\n      swap1\n      pop\n        /* \"#utility.yul\":8593:8602   */\n      dup2\n        /* \"#utility.yul\":8587:8591   */\n      dup2\n        /* \"#utility.yul\":8583:8603   */\n      sub\n        /* \"#utility.yul\":8579:8580   */\n      0x00\n        /* \"#utility.yul\":8568:8577   */\n      dup4\n        /* \"#utility.yul\":8564:8581   */\n      add\n        /* \"#utility.yul\":8557:8604   */\n      mstore\n        /* \"#utility.yul\":8621:8752   */\n      tag_219\n        /* \"#utility.yul\":8747:8751   */\n      dup2\n        /* \"#utility.yul\":8621:8752   */\n      tag_108\n      jump\t// in\n    tag_219:\n        /* \"#utility.yul\":8613:8752   */\n      swap1\n      pop\n        /* \"#utility.yul\":8340:8759   */\n      swap2\n      swap1\n      pop\n      jump\t// out\n        /* \"#utility.yul\":8765:8945   */\n    tag_40:\n        /* \"#utility.yul\":8813:8890   */\n      0x4e487b7100000000000000000000000000000000000000000000000000000000\n        /* \"#utility.yul\":8810:8811   */\n      0x00\n        /* \"#utility.yul\":8803:8891   */\n      mstore\n        /* \"#utility.yul\":8910:8914   */\n      0x32\n        /* \"#utility.yul\":8907:8908   */\n      0x04\n        /* \"#utility.yul\":8900:8915   */\n      mstore\n        /* \"#utility.yul\":8934:8938   */\n      0x24\n        /* \"#utility.yul\":8931:8932   */\n      0x00\n        /* \"#utility.yul\":8924:8939   */\n      revert\n        /* \"#utility.yul\":8951:9131   */\n    tag_109:\n        /* \"#utility.yul\":8999:9076   */\n      0x4e487b7100000000000000000000000000000000000000000000000000000000\n        /* \"#utility.yul\":8996:8997   */\n      0x00\n        /* \"#utility.yul\":8989:9077   */\n      mstore\n        /* \"#utility.yul\":9096:9100   */\n      0x11\n        /* \"#utility.yul\":9093:9094   */\n      0x04\n        /* \"#utility.yul\":9086:9101   */\n      mstore\n        /* \"#utility.yul\":9120:9124   */\n      0x24\n        /* \"#utility.yul\":9117:9118   */\n      0x00\n        /* \"#utility.yul\":9110:9125   */\n      revert\n        /* \"#utility.yul\":9137:9370   */\n    tag_43:\n        /* \"#utility.yul\":9176:9179   */\n      0x00\n        /* \"#utility.yul\":9199:9223   */\n      tag_223\n        /* \"#utility.yul\":9217:9222   */\n      dup3\n        /* \"#utility.yul\":9199:9223   */\n      tag_81\n      jump\t// in\n    tag_223:\n        /* \"#utility.yul\":9190:9223   */\n      swap2\n      pop\n        /* \"#utility.yul\":9245:9311   */\n      0xffffffffffffffffffffffffffffffffffffffffffffffffffffffffffffffff\n        /* \"#utility.yul\":9238:9243   */\n      dup3\n        /* \"#utility.yul\":9235:9312   */\n      sub\n        /* \"#utility.yul\":9232:9335   */\n      tag_224\n      jumpi\n        /* \"#utility.yul\":9315:9333   */\n      tag_225\n      tag_109\n      jump\t// in\n    tag_225:\n        /* \"#utility.yul\":9232:9335   */\n    tag_224:\n        /* \"#utility.yul\":9362:9363   */\n      0x01\n        /* \"#utility.yul\":9355:9360   */\n      dup3\n        /* \"#utility.yul\":9351:9364   */\n      add\n        /* \"#utility.yul\":9344:9364   */\n      swap1\n      pop\n        /* \"#utility.yul\":9137:9370   */\n      swap2\n      swap1\n      pop\n      jump\t// out\n        /* \"#utility.yul\":9376:9494   */\n    tag_110:\n        /* \"#utility.yul\":9463:9487   */\n      tag_227\n        /* \"#utility.yul\":9481:9486   */\n      dup2\n        /* \"#utility.yul\":9463:9487   */\n      tag_91\n      jump\t// in\n    tag_227:\n        /* \"#utility.yul\":9458:9461   */\n      dup3\n        /* \"#utility.yul\":9451:9488   */\n      mstore\n        /* \"#utility.yul\":9376:9494   */\n      pop\n      pop\n      jump\t// out\n        /* \"#utility.yul\":9500:9832   */\n    tag_45:\n        /* \"#utility.yul\":9621:9625   */\n      0x00\n        /* \"#utility.yul\":9659:9661   */\n      0x40\n        /* \"#utility.yul\":9648:9657   */\n      dup3\n        /* \"#utility.yul\":9644:9662   */\n      add\n        /* \"#utility.yul\":9636:9662   */\n      swap1\n      pop\n        /* \"#utility.yul\":9672:9743   */\n      tag_229\n        /* \"#utility.yul\":9740:9741   */\n      0x00\n        /* \"#utility.yul\":9729:9738   */\n      dup4\n        /* \"#utility.yul\":9725:9742   */\n      add\n        /* \"#utility.yul\":9716:9722   */\n      dup6\n        /* \"#utility.yul\":9672:9743   */\n      tag_110\n      jump\t// in\n    tag_229:\n        /* \"#utility.yul\":9753:9825   */\n      tag_230\n        /* \"#utility.yul\":9821:9823   */\n      0x20\n        /* \"#utility.yul\":9810:9819   */\n      dup4\n        /* \"#utility.yul\":9806:9824   */\n      add\n        /* \"#utility.yul\":9797:9803   */\n      dup5\n        /* \"#utility.yul\":9753:9825   */\n      tag_89\n      jump\t// in\n    tag_230:\n        /* \"#utility.yul\":9500:9832   */\n      swap4\n      swap3\n      pop\n      pop\n      pop\n      jump\t// out\n        /* \"#utility.yul\":9838:10018   */\n    tag_111:\n        /* \"#utility.yul\":9886:9963   */\n      0x4e487b7100000000000000000000000000000000000000000000000000000000\n        /* \"#utility.yul\":9883:9884   */\n      0x00\n        /* \"#utility.yul\":9876:9964   */\n      mstore\n        /* \"#utility.yul\":9983:9987   */\n      0x22\n        /* \"#utility.yul\":9980:9981   */\n      0x04\n        /* \"#utility.yul\":9973:9988   */\n      mstore\n        /* \"#utility.yul\":10007:10011   */\n      0x24\n        /* \"#utility.yul\":10004:10005   */\n      0x00\n        /* \"#utility.yul\":9997:10012   */\n      revert\n        /* \"#utility.yul\":10024:10344   */\n    tag_49:\n        /* \"#utility.yul\":10068:10074   */\n      0x00\n        /* \"#utility.yul\":10105:10106   */\n      0x02\n        /* \"#utility.yul\":10099:10103   */\n      dup3\n        /* \"#utility.yul\":10095:10107   */\n      div\n        /* \"#utility.yul\":10085:10107   */\n      swap1\n      pop\n        /* \"#utility.yul\":10152:10153   */\n      0x01\n        /* \"#utility.yul\":10146:10150   */\n      dup3\n        /* \"#utility.yul\":10142:10154   */\n      and\n        /* \"#utility.yul\":10173:10191   */\n      dup1\n        /* \"#utility.yul\":10163:10244   */\n      tag_233\n      jumpi\n        /* \"#utility.yul\":10229:10233   */\n      0x7f\n        /* \"#utility.yul\":10221:10227   */\n      dup3\n        /* \"#utility.yul\":10217:10234   */\n      and\n        /* \"#utility.yul\":10207:10234   */\n      swap2\n      pop\n        /* \"#utility.yul\":10163:10244   */\n    tag_233:\n        /* \"#utility.yul\":10291:10293   */\n      0x20\n        /* \"#utility.yul\":10283:10289   */\n      dup3\n        /* \"#utility.yul\":10280:10294   */\n      lt\n        /* \"#utility.yul\":10260:10278   */\n      dup2\n        /* \"#utility.yul\":10257:10295   */\n      sub\n        /* \"#utility.yul\":10254:10338   */\n      tag_234\n      jumpi\n        /* \"#utility.yul\":10310:10328   */\n      tag_235\n      tag_111\n      jump\t// in\n    tag_235:\n        /* \"#utility.yul\":10254:10338   */\n    tag_234:\n        /* \"#utility.yul\":10075:10344   */\n      pop\n        /* \"#utility.yul\":10024:10344   */\n      swap2\n      swap1\n      pop\n      jump\t// out\n        /* \"#utility.yul\":10350:10491   */\n    tag_112:\n        /* \"#utility.yul\":10399:10403   */\n      0x00\n        /* \"#utility.yul\":10422:10425   */\n      dup2\n        /* \"#utility.yul\":10414:10425   */\n      swap1\n      pop\n        /* \"#utility.yul\":10445:10448   */\n      dup2\n        /* \"#utility.yul\":10442:10443   */\n      0x00\n        /* \"#utility.yul\":10435:10449   */\n      mstore\n        /* \"#utility.yul\":10479:10483   */\n      0x20\n        /* \"#utility.yul\":10476:10477   */\n      0x00\n        /* \"#utility.yul\":10466:10484   */\n      keccak256\n        /* \"#utility.yul\":10458:10484   */\n      swap1\n      pop\n        /* \"#utility.yul\":10350:10491   */\n      swap2\n      swap1\n      pop\n      jump\t// out\n        /* \"#utility.yul\":10497:10590   */\n    tag_113:\n        /* \"#utility.yul\":10534:10540   */\n      0x00\n        /* \"#utility.yul\":10581:10583   */\n      0x20\n        /* \"#utility.yul\":10576:10578   */\n      0x1f\n        /* \"#utility.yul\":10569:10574   */\n      dup4\n        /* \"#utility.yul\":10565:10579   */\n      add\n        /* \"#utility.yul\":10561:10584   */\n      div\n        /* \"#utility.yul\":10551:10584   */\n      swap1\n      pop\n        /* \"#utility.yul\":10497:10590   */\n      swap2\n      swap1\n      pop\n      jump\t// out\n        /* \"#utility.yul\":10596:10703   */\n    tag_114:\n        /* \"#utility.yul\":10640:10648   */\n      0x00\n        /* \"#utility.yul\":10690:10695   */\n      dup3\n        /* \"#utility.yul\":10684:10688   */\n      dup3\n        /* \"#utility.yul\":10680:10696   */\n      shl\n        /* \"#utility.yul\":10659:10696   */\n      swap1\n      pop\n        /* \"#utility.yul\":10596:10703   */\n      swap3\n      swap2\n      pop\n      pop\n      jump\t// out\n        /* \"#utility.yul\":10709:11102   */\n    tag_115:\n        /* \"#utility.yul\":10778:10784   */\n      0x00\n        /* \"#utility.yul\":10828:10829   */\n      0x08\n        /* \"#utility.yul\":10816:10826   */\n      dup4\n        /* \"#utility.yul\":10812:10830   */\n      mul\n        /* \"#utility.yul\":10851:10948   */\n      tag_240\n        /* \"#utility.yul\":10881:10947   */\n      0xffffffffffffffffffffffffffffffffffffffffffffffffffffffffffffffff\n        /* \"#utility.yul\":10870:10879   */\n      dup3\n        /* \"#utility.yul\":10851:10948   */\n      tag_114\n      jump\t// in\n    tag_240:\n        /* \"#utility.yul\":10969:11008   */\n      tag_241\n        /* \"#utility.yul\":10999:11007   */\n      dup7\n        /* \"#utility.yul\":10988:10997   */\n      dup4\n        /* \"#utility.yul\":10969:11008   */\n      tag_114\n      jump\t// in\n    tag_241:\n        /* \"#utility.yul\":10957:11008   */\n      swap6\n      pop\n        /* \"#utility.yul\":11041:11045   */\n      dup1\n        /* \"#utility.yul\":11037:11046   */\n      not\n        /* \"#utility.yul\":11030:11035   */\n      dup5\n        /* \"#utility.yul\":11026:11047   */\n      and\n        /* \"#utility.yul\":11017:11047   */\n      swap4\n      pop\n        /* \"#utility.yul\":11090:11094   */\n      dup1\n        /* \"#utility.yul\":11080:11088   */\n      dup7\n        /* \"#utility.yul\":11076:11095   */\n      and\n        /* \"#utility.yul\":11069:11074   */\n      dup5\n        /* \"#utility.yul\":11066:11096   */\n      or\n        /* \"#utility.yul\":11056:11096   */\n      swap3\n      pop\n        /* \"#utility.yul\":10785:11102   */\n      pop\n      pop\n        /* \"#utility.yul\":10709:11102   */\n      swap4\n      swap3\n      pop\n      pop\n      pop\n      jump\t// out\n        /* \"#utility.yul\":11108:11168   */\n    tag_116:\n        /* \"#utility.yul\":11136:11139   */\n      0x00\n        /* \"#utility.yul\":11157:11162   */\n      dup2\n        /* \"#utility.yul\":11150:11162   */\n      swap1\n      pop\n        /* \"#utility.yul\":11108:11168   */\n      swap2\n      swap1\n      pop\n      jump\t// out\n        /* \"#utility.yul\":11174:11316   */\n    tag_117:\n        /* \"#utility.yul\":11224:11233   */\n      0x00\n        /* \"#utility.yul\":11257:11310   */\n      tag_244\n        /* \"#utility.yul\":11275:11309   */\n      tag_245\n        /* \"#utility.yul\":11284:11308   */\n      tag_246\n        /* \"#utility.yul\":11302:11307   */\n      dup5\n        /* \"#utility.yul\":11284:11308   */\n      tag_81\n      jump\t// in\n    tag_246:\n        /* \"#utility.yul\":11275:11309   */\n      tag_116\n      jump\t// in\n    tag_245:\n        /* \"#utility.yul\":11257:11310   */\n      tag_81\n      jump\t// in\n    tag_244:\n        /* \"#utility.yul\":11244:11310   */\n      swap1\n      pop\n        /* \"#utility.yul\":11174:11316   */\n      swap2\n      swap1\n      pop\n      jump\t// out\n        /* \"#utility.yul\":11322:11397   */\n    tag_118:\n        /* \"#utility.yul\":11365:11368   */\n      0x00\n        /* \"#utility.yul\":11386:11391   */\n      dup2\n        /* \"#utility.yul\":11379:11391   */\n      swap1\n      pop\n        /* \"#utility.yul\":11322:11397   */\n      swap2\n      swap1\n      pop\n      jump\t// out\n        /* \"#utility.yul\":11403:11672   */\n    tag_119:\n        /* \"#utility.yul\":11513:11552   */\n      tag_249\n        /* \"#utility.yul\":11544:11551   */\n      dup4\n        /* \"#utility.yul\":11513:11552   */\n      tag_117\n      jump\t// in\n    tag_249:\n        /* \"#utility.yul\":11574:11665   */\n      tag_250\n        /* \"#utility.yul\":11623:11664   */\n      tag_251\n        /* \"#utility.yul\":11647:11663   */\n      dup3\n        /* \"#utility.yul\":11623:11664   */\n      tag_118\n      jump\t// in\n    tag_251:\n        /* \"#utility.yul\":11615:11621   */\n      dup5\n        /* \"#utility.yul\":11608:11612   */\n      dup5\n        /* \"#utility.yul\":11602:11613   */\n      sload\n        /* \"#utility.yul\":11574:11665   */\n      tag_115\n      jump\t// in\n    tag_250:\n        /* \"#utility.yul\":11568:11572   */\n      dup3\n        /* \"#utility.yul\":11561:11666   */\n      sstore\n        /* \"#utility.yul\":11479:11672   */\n      pop\n        /* \"#utility.yul\":11403:11672   */\n      pop\n      pop\n      pop\n      jump\t// out\n        /* \"#utility.yul\":11678:11751   */\n    tag_120:\n        /* \"#utility.yul\":11723:11726   */\n      0x00\n        /* \"#utility.yul\":11678:11751   */\n      swap1\n      jump\t// out\n        /* \"#utility.yul\":11757:11946   */\n    tag_121:\n        /* \"#utility.yul\":11834:11866   */\n      tag_254\n      tag_120\n      jump\t// in\n    tag_254:\n        /* \"#utility.yul\":11875:11940   */\n      tag_255\n        /* \"#utility.yul\":11933:11939   */\n      dup2\n        /* \"#utility.yul\":11925:11931   */\n      dup5\n        /* \"#utility.yul\":11919:11923   */\n      dup5\n        /* \"#utility.yul\":11875:11940   */\n      tag_119\n      jump\t// in\n    tag_255:\n        /* \"#utility.yul\":11810:11946   */\n      pop\n        /* \"#utility.yul\":11757:11946   */\n      pop\n      pop\n      jump\t// out\n        /* \"#utility.yul\":11952:12138   */\n    tag_122:\n        /* \"#utility.yul\":12012:12132   */\n    tag_257:\n        /* \"#utility.yul\":12029:12032   */\n      dup2\n        /* \"#utility.yul\":12022:12027   */\n      dup2\n        /* \"#utility.yul\":12019:12033   */\n      lt\n        /* \"#utility.yul\":12012:12132   */\n      iszero\n      tag_259\n      jumpi\n        /* \"#utility.yul\":12083:12122   */\n      tag_260\n        /* \"#utility.yul\":12120:12121   */\n      0x00\n        /* \"#utility.yul\":12113:12118   */\n      dup3\n        /* \"#utility.yul\":12083:12122   */\n      tag_121\n      jump\t// in\n    tag_260:\n        /* \"#utility.yul\":12056:12057   */\n      0x01\n        /* \"#utility.yul\":12049:12054   */\n      dup2\n        /* \"#utility.yul\":12045:12058   */\n      add\n        /* \"#utility.yul\":12036:12058   */\n      swap1\n      pop\n        /* \"#utility.yul\":12012:12132   */\n      jump(tag_257)\n    tag_259:\n        /* \"#utility.yul\":11952:12138   */\n      pop\n      pop\n      jump\t// out\n        /* \"#utility.yul\":12144:12687   */\n    tag_123:\n        /* \"#utility.yul\":12245:12247   */\n      0x1f\n        /* \"#utility.yul\":12240:12243   */\n      dup3\n        /* \"#utility.yul\":12237:12248   */\n      gt\n        /* \"#utility.yul\":12234:12680   */\n      iszero\n      tag_262\n      jumpi\n        /* \"#utility.yul\":12279:12317   */\n      tag_263\n        /* \"#utility.yul\":12311:12316   */\n      dup2\n        /* \"#utility.yul\":12279:12317   */\n      tag_112\n      jump\t// in\n    tag_263:\n        /* \"#utility.yul\":12363:12392   */\n      tag_264\n        /* \"#utility.yul\":12381:12391   */\n      dup5\n        /* \"#utility.yul\":12363:12392   */\n      tag_113\n      jump\t// in\n    tag_264:\n        /* \"#utility.yul\":12353:12361   */\n      dup2\n        /* \"#utility.yul\":12349:12393   */\n      add\n        /* \"#utility.yul\":12546:12548   */\n      0x20\n        /* \"#utility.yul\":12534:12544   */\n      dup6\n        /* \"#utility.yul\":12531:12549   */\n      lt\n        /* \"#utility.yul\":12528:12577   */\n      iszero\n      tag_265\n      jumpi\n        /* \"#utility.yul\":12567:12575   */\n      dup2\n        /* \"#utility.yul\":12552:12575   */\n      swap1\n      pop\n        /* \"#utility.yul\":12528:12577   */\n    tag_265:\n        /* \"#utility.yul\":12590:12670   */\n      tag_266\n        /* \"#utility.yul\":12646:12668   */\n      tag_267\n        /* \"#utility.yul\":12664:12667   */\n      dup6\n        /* \"#utility.yul\":12646:12668   */\n      tag_113\n      jump\t// in\n    tag_267:\n        /* \"#utility.yul\":12636:12644   */\n      dup4\n        /* \"#utility.yul\":12632:12669   */\n      add\n        /* \"#utility.yul\":12619:12630   */\n      dup3\n        /* \"#utility.yul\":12590:12670   */\n      tag_122\n      jump\t// in\n    tag_266:\n        /* \"#utility.yul\":12249:12680   */\n      pop\n      pop\n        /* \"#utility.yul\":12234:12680   */\n    tag_262:\n        /* \"#utility.yul\":12144:12687   */\n      pop\n      pop\n      pop\n      jump\t// out\n        /* \"#utility.yul\":12693:12810   */\n    tag_124:\n        /* \"#utility.yul\":12747:12755   */\n      0x00\n        /* \"#utility.yul\":12797:12802   */\n      dup3\n        /* \"#utility.yul\":12791:12795   */\n      dup3\n        /* \"#utility.yul\":12787:12803   */\n      shr\n        /* \"#utility.yul\":12766:12803   */\n      swap1\n      pop\n        /* \"#utility.yul\":12693:12810   */\n      swap3\n      swap2\n      pop\n      pop\n      jump\t// out\n        /* \"#utility.yul\":12816:12985   */\n    tag_125:\n        /* \"#utility.yul\":12860:12866   */\n      0x00\n        /* \"#utility.yul\":12893:12944   */\n      tag_270\n        /* \"#utility.yul\":12941:12942   */\n      0x00\n        /* \"#utility.yul\":12937:12943   */\n      not\n        /* \"#utility.yul\":12929:12934   */\n      dup5\n        /* \"#utility.yul\":12926:12927   */\n      0x08\n        /* \"#utility.yul\":12922:12935   */\n      mul\n        /* \"#utility.yul\":12893:12944   */\n      tag_124\n      jump\t// in\n    tag_270:\n        /* \"#utility.yul\":12889:12945   */\n      not\n        /* \"#utility.yul\":12974:12978   */\n      dup1\n        /* \"#utility.yul\":12968:12972   */\n      dup4\n        /* \"#utility.yul\":12964:12979   */\n      and\n        /* \"#utility.yul\":12954:12979   */\n      swap2\n      pop\n        /* \"#utility.yul\":12867:12985   */\n      pop\n        /* \"#utility.yul\":12816:12985   */\n      swap3\n      swap2\n      pop\n      pop\n      jump\t// out\n        /* \"#utility.yul\":12990:13285   */\n    tag_126:\n        /* \"#utility.yul\":13066:13070   */\n      0x00\n        /* \"#utility.yul\":13212:13241   */\n      tag_272\n        /* \"#utility.yul\":13237:13240   */\n      dup4\n        /* \"#utility.yul\":13231:13235   */\n      dup4\n        /* \"#utility.yul\":13212:13241   */\n      tag_125\n      jump\t// in\n    tag_272:\n        /* \"#utility.yul\":13204:13241   */\n      swap2\n      pop\n        /* \"#utility.yul\":13274:13277   */\n      dup3\n        /* \"#utility.yul\":13271:13272   */\n      0x02\n        /* \"#utility.yul\":13267:13278   */\n      mul\n        /* \"#utility.yul\":13261:13265   */\n      dup3\n        /* \"#utility.yul\":13258:13279   */\n      or\n        /* \"#utility.yul\":13250:13279   */\n      swap1\n      pop\n        /* \"#utility.yul\":12990:13285   */\n      swap3\n      swap2\n      pop\n      pop\n      jump\t// out\n        /* \"#utility.yul\":13290:14685   */\n    tag_57:\n        /* \"#utility.yul\":13407:13444   */\n      tag_274\n        /* \"#utility.yul\":13440:13443   */\n      dup3\n        /* \"#utility.yul\":13407:13444   */\n      tag_84\n      jump\t// in\n    tag_274:\n        /* \"#utility.yul\":13509:13527   */\n      0xffffffffffffffff\n        /* \"#utility.yul\":13501:13507   */\n      dup2\n        /* \"#utility.yul\":13498:13528   */\n      gt\n        /* \"#utility.yul\":13495:13551   */\n      iszero\n      tag_275\n      jumpi\n        /* \"#utility.yul\":13531:13549   */\n      tag_276\n      tag_98\n      jump\t// in\n    tag_276:\n        /* \"#utility.yul\":13495:13551   */\n    tag_275:\n        /* \"#utility.yul\":13575:13613   */\n      tag_277\n        /* \"#utility.yul\":13607:13611   */\n      dup3\n        /* \"#utility.yul\":13601:13612   */\n      sload\n        /* \"#utility.yul\":13575:13613   */\n      tag_49\n      jump\t// in\n    tag_277:\n        /* \"#utility.yul\":13660:13727   */\n      tag_278\n        /* \"#utility.yul\":13720:13726   */\n      dup3\n        /* \"#utility.yul\":13712:13718   */\n      dup3\n        /* \"#utility.yul\":13706:13710   */\n      dup6\n        /* \"#utility.yul\":13660:13727   */\n      tag_123\n      jump\t// in\n    tag_278:\n        /* \"#utility.yul\":13754:13755   */\n      0x00\n        /* \"#utility.yul\":13778:13782   */\n      0x20\n        /* \"#utility.yul\":13765:13782   */\n      swap1\n      pop\n        /* \"#utility.yul\":13810:13812   */\n      0x1f\n        /* \"#utility.yul\":13802:13808   */\n      dup4\n        /* \"#utility.yul\":13799:13813   */\n      gt\n        /* \"#utility.yul\":13827:13828   */\n      0x01\n        /* \"#utility.yul\":13822:14440   */\n      dup2\n      eq\n      tag_280\n      jumpi\n        /* \"#utility.yul\":14484:14485   */\n      0x00\n        /* \"#utility.yul\":14501:14507   */\n      dup5\n        /* \"#utility.yul\":14498:14575   */\n      iszero\n      tag_281\n      jumpi\n        /* \"#utility.yul\":14550:14559   */\n      dup3\n        /* \"#utility.yul\":14545:14548   */\n      dup8\n        /* \"#utility.yul\":14541:14560   */\n      add\n        /* \"#utility.yul\":14535:14561   */\n      mload\n        /* \"#utility.yul\":14526:14561   */\n      swap1\n      pop\n        /* \"#utility.yul\":14498:14575   */\n    tag_281:\n        /* \"#utility.yul\":14601:14668   */\n      tag_282\n        /* \"#utility.yul\":14661:14667   */\n      dup6\n        /* \"#utility.yul\":14654:14659   */\n      dup3\n        /* \"#utility.yul\":14601:14668   */\n      tag_126\n      jump\t// in\n    tag_282:\n        /* \"#utility.yul\":14595:14599   */\n      dup7\n        /* \"#utility.yul\":14588:14669   */\n      sstore\n        /* \"#utility.yul\":14457:14679   */\n      pop\n        /* \"#utility.yul\":13792:14679   */\n      jump(tag_279)\n        /* \"#utility.yul\":13822:14440   */\n    tag_280:\n        /* \"#utility.yul\":13874:13878   */\n      0x1f\n        /* \"#utility.yul\":13870:13879   */\n      not\n        /* \"#utility.yul\":13862:13868   */\n      dup5\n        /* \"#utility.yul\":13858:13880   */\n      and\n        /* \"#utility.yul\":13908:13945   */\n      tag_283\n        /* \"#utility.yul\":13940:13944   */\n      dup7\n        /* \"#utility.yul\":13908:13945   */\n      tag_112\n      jump\t// in\n    tag_283:\n        /* \"#utility.yul\":13967:13968   */\n      0x00\n        /* \"#utility.yul\":13981:14189   */\n    tag_284:\n        /* \"#utility.yul\":13995:14002   */\n      dup3\n        /* \"#utility.yul\":13992:13993   */\n      dup2\n        /* \"#utility.yul\":13989:14003   */\n      lt\n        /* \"#utility.yul\":13981:14189   */\n      iszero\n      tag_286\n      jumpi\n        /* \"#utility.yul\":14074:14083   */\n      dup5\n        /* \"#utility.yul\":14069:14072   */\n      dup10\n        /* \"#utility.yul\":14065:14084   */\n      add\n        /* \"#utility.yul\":14059:14085   */\n      mload\n        /* \"#utility.yul\":14051:14057   */\n      dup3\n        /* \"#utility.yul\":14044:14086   */\n      sstore\n        /* \"#utility.yul\":14125:14126   */\n      0x01\n        /* \"#utility.yul\":14117:14123   */\n      dup3\n        /* \"#utility.yul\":14113:14127   */\n      add\n        /* \"#utility.yul\":14103:14127   */\n      swap2\n      pop\n        /* \"#utility.yul\":14172:14174   */\n      0x20\n        /* \"#utility.yul\":14161:14170   */\n      dup6\n        /* \"#utility.yul\":14157:14175   */\n      add\n        /* \"#utility.yul\":14144:14175   */\n      swap5\n      pop\n        /* \"#utility.yul\":14018:14022   */\n      0x20\n        /* \"#utility.yul\":14015:14016   */\n      dup2\n        /* \"#utility.yul\":14011:14023   */\n      add\n        /* \"#utility.yul\":14006:14023   */\n      swap1\n      pop\n        /* \"#utility.yul\":13981:14189   */\n      jump(tag_284)\n    tag_286:\n        /* \"#utility.yul\":14217:14223   */\n      dup7\n        /* \"#utility.yul\":14208:14215   */\n      dup4\n        /* \"#utility.yul\":14205:14224   */\n      lt\n        /* \"#utility.yul\":14202:14381   */\n      iszero\n      tag_287\n      jumpi\n        /* \"#utility.yul\":14275:14284   */\n      dup5\n        /* \"#utility.yul\":14270:14273   */\n      dup10\n        /* \"#utility.yul\":14266:14285   */\n      add\n        /* \"#utility.yul\":14260:14286   */\n      mload\n        /* \"#utility.yul\":14318:14366   */\n      tag_288\n        /* \"#utility.yul\":14360:14364   */\n      0x1f\n        /* \"#utility.yul\":14352:14358   */\n      dup10\n        /* \"#utility.yul\":14348:14365   */\n      and\n        /* \"#utility.yul\":14337:14346   */\n      dup3\n        /* \"#utility.yul\":14318:14366   */\n      tag_125\n      jump\t// in\n    tag_288:\n        /* \"#utility.yul\":14310:14316   */\n      dup4\n        /* \"#utility.yul\":14303:14367   */\n      sstore\n        /* \"#utility.yul\":14225:14381   */\n      pop\n        /* \"#utility.yul\":14202:14381   */\n    tag_287:\n        /* \"#utility.yul\":14427:14428   */\n      0x01\n        /* \"#utility.yul\":14423:14424   */\n      0x02\n        /* \"#utility.yul\":14415:14421   */\n      dup9\n        /* \"#utility.yul\":14411:14425   */\n      mul\n        /* \"#utility.yul\":14407:14429   */\n      add\n        /* \"#utility.yul\":14401:14405   */\n      dup9\n        /* \"#utility.yul\":14394:14430   */\n      sstore\n        /* \"#utility.yul\":13829:14440   */\n      pop\n      pop\n      pop\n        /* \"#utility.yul\":13792:14679   */\n    tag_279:\n      pop\n        /* \"#utility.yul\":13382:14685   */\n      pop\n      pop\n      pop\n        /* \"#utility.yul\":13290:14685   */\n      pop\n      pop\n      jump\t// out\n\n    auxdata: 0xa264697066735822122095a01594ecfa645bd3a553bdd57137e7c6410639c5be5737e9e2e6c78dc1507e64736f6c63430008160033\n}\n",
				"bytecode": {
					"linkReferences": {},
					"object": "608060405234801561000f575f80fd5b50610d5e8061001d5f395ff3fe608060405234801561000f575f80fd5b5060043610610055575f3560e01c80630121b93f146100595780633477ee2e14610075578063a3dfb329146100a6578063e6293cf0146100d6578063e7bb7cbe146100f2575b5f80fd5b610073600480360381019061006e919061057b565b610110565b005b61008f600480360381019061008a919061057b565b6102ac565b60405161009d92919061063f565b60405180910390f35b6100c060048036038101906100bb91906106c7565b610360565b6040516100cd919061070c565b60405180910390f35b6100f060048036038101906100eb9190610851565b61037d565b005b6100fa610415565b6040516101079190610898565b60405180910390f35b5f151560015f3373ffffffffffffffffffffffffffffffffffffffff1673ffffffffffffffffffffffffffffffffffffffff1681526020019081526020015f205f9054906101000a900460ff1615151461019f576040517f08c379a000000000000000000000000000000000000000000000000000000000815260040161019690610902565b60405180910390fd5b5f8054905081106101e5576040517f08c379a00000000000000000000000000000000000000000000000000000000081526004016101dc9061096a565b60405180910390fd5b6001805f3373ffffffffffffffffffffffffffffffffffffffff1673ffffffffffffffffffffffffffffffffffffffff1681526020019081526020015f205f6101000a81548160ff0219169083151502179055505f818154811061024c5761024b610988565b5b905f5260205f2090600202016001015f81548092919061026b906109e2565b91905055507fc591aa98f3e7d1c3a106f4653e39eba694fcc03ba3c686dfbefbf82f6b06bcea33426040516102a1929190610a38565b60405180910390a150565b5f81815481106102ba575f80fd5b905f5260205f2090600202015f91509050805f0180546102d990610a8c565b80601f016020809104026020016040519081016040528092919081815260200182805461030590610a8c565b80156103505780601f1061032757610100808354040283529160200191610350565b820191905f5260205f20905b81548152906001019060200180831161033357829003601f168201915b5050505050908060010154905082565b6001602052805f5260405f205f915054906101000a900460ff1681565b5f60405180604001604052808381526020015f815250908060018154018082558091505060019003905f5260205f2090600202015f909190919091505f820151815f0190816103cc9190610c59565b506020820151816001015550507f8b83e76785def4a83e97694f773b79e48bc478b41ed4ba5780c6d44684212b14334260405161040a929190610a38565b60405180910390a150565b60605f805f5b5f8054905081101561048757815f828154811061043b5761043a610988565b5b905f5260205f20906002020160010154111561047a575f818154811061046457610463610988565b5b905f5260205f2090600202016001015491508092505b808060010191505061041b565b505f828154811061049b5761049a610988565b5b905f5260205f2090600202015f0180546104b490610a8c565b80601f01602080910402602001604051908101604052809291908181526020018280546104e090610a8c565b801561052b5780601f106105025761010080835404028352916020019161052b565b820191905f5260205f20905b81548152906001019060200180831161050e57829003601f168201915b50505050509250505090565b5f604051905090565b5f80fd5b5f80fd5b5f819050919050565b61055a81610548565b8114610564575f80fd5b50565b5f8135905061057581610551565b92915050565b5f602082840312156105905761058f610540565b5b5f61059d84828501610567565b91505092915050565b5f81519050919050565b5f82825260208201905092915050565b5f5b838110156105dd5780820151818401526020810190506105c2565b5f8484015250505050565b5f601f19601f8301169050919050565b5f610602826105a6565b61060c81856105b0565b935061061c8185602086016105c0565b610625816105e8565b840191505092915050565b61063981610548565b82525050565b5f6040820190508181035f83015261065781856105f8565b90506106666020830184610630565b9392505050565b5f73ffffffffffffffffffffffffffffffffffffffff82169050919050565b5f6106968261066d565b9050919050565b6106a68161068c565b81146106b0575f80fd5b50565b5f813590506106c18161069d565b92915050565b5f602082840312156106dc576106db610540565b5b5f6106e9848285016106b3565b91505092915050565b5f8115159050919050565b610706816106f2565b82525050565b5f60208201905061071f5f8301846106fd565b92915050565b5f80fd5b5f80fd5b7f4e487b71000000000000000000000000000000000000000000000000000000005f52604160045260245ffd5b610763826105e8565b810181811067ffffffffffffffff821117156107825761078161072d565b5b80604052505050565b5f610794610537565b90506107a0828261075a565b919050565b5f67ffffffffffffffff8211156107bf576107be61072d565b5b6107c8826105e8565b9050602081019050919050565b828183375f83830152505050565b5f6107f56107f0846107a5565b61078b565b90508281526020810184848401111561081157610810610729565b5b61081c8482856107d5565b509392505050565b5f82601f83011261083857610837610725565b5b81356108488482602086016107e3565b91505092915050565b5f6020828403121561086657610865610540565b5b5f82013567ffffffffffffffff81111561088357610882610544565b5b61088f84828501610824565b91505092915050565b5f6020820190508181035f8301526108b081846105f8565b905092915050565b7f596f75204861766520416c726561647920566f746500000000000000000000005f82015250565b5f6108ec6015836105b0565b91506108f7826108b8565b602082019050919050565b5f6020820190508181035f830152610919816108e0565b9050919050565b7f496e76616c69642043616e64696461746520496e6465780000000000000000005f82015250565b5f6109546017836105b0565b915061095f82610920565b602082019050919050565b5f6020820190508181035f83015261098181610948565b9050919050565b7f4e487b71000000000000000000000000000000000000000000000000000000005f52603260045260245ffd5b7f4e487b71000000000000000000000000000000000000000000000000000000005f52601160045260245ffd5b5f6109ec82610548565b91507fffffffffffffffffffffffffffffffffffffffffffffffffffffffffffffffff8203610a1e57610a1d6109b5565b5b600182019050919050565b610a328161068c565b82525050565b5f604082019050610a4b5f830185610a29565b610a586020830184610630565b9392505050565b7f4e487b71000000000000000000000000000000000000000000000000000000005f52602260045260245ffd5b5f6002820490506001821680610aa357607f821691505b602082108103610ab657610ab5610a5f565b5b50919050565b5f819050815f5260205f209050919050565b5f6020601f8301049050919050565b5f82821b905092915050565b5f60088302610b187fffffffffffffffffffffffffffffffffffffffffffffffffffffffffffffffff82610add565b610b228683610add565b95508019841693508086168417925050509392505050565b5f819050919050565b5f610b5d610b58610b5384610548565b610b3a565b610548565b9050919050565b5f819050919050565b610b7683610b43565b610b8a610b8282610b64565b848454610ae9565b825550505050565b5f90565b610b9e610b92565b610ba9818484610b6d565b505050565b5b81811015610bcc57610bc15f82610b96565b600181019050610baf565b5050565b601f821115610c1157610be281610abc565b610beb84610ace565b81016020851015610bfa578190505b610c0e610c0685610ace565b830182610bae565b50505b505050565b5f82821c905092915050565b5f610c315f1984600802610c16565b1980831691505092915050565b5f610c498383610c22565b9150826002028217905092915050565b610c62826105a6565b67ffffffffffffffff811115610c7b57610c7a61072d565b5b610c858254610a8c565b610c90828285610bd0565b5f60209050601f831160018114610cc1575f8415610caf578287015190505b610cb98582610c3e565b865550610d20565b601f198416610ccf86610abc565b5f5b82811015610cf657848901518255600182019150602085019450602081019050610cd1565b86831015610d135784890151610d0f601f891682610c22565b8355505b6001600288020188555050505b50505050505056fea264697066735822122095a01594ecfa645bd3a553bdd57137e7c6410639c5be5737e9e2e6c78dc1507e64736f6c63430008160033",
					"opcodes": "PUSH1 0x80 PUSH1 0x40 MSTORE CALLVALUE DUP1 ISZERO PUSH2 0xF JUMPI PUSH0 DUP1 REVERT JUMPDEST POP PUSH2 0xD5E DUP1 PUSH2 0x1D PUSH0 CODECOPY PUSH0 RETURN INVALID PUSH1 0x80 PUSH1 0x40 MSTORE CALLVALUE DUP1 ISZERO PUSH2 0xF JUMPI PUSH0 DUP1 REVERT JUMPDEST POP PUSH1 0x4 CALLDATASIZE LT PUSH2 0x55 JUMPI PUSH0 CALLDATALOAD PUSH1 0xE0 SHR DUP1 PUSH4 0x121B93F EQ PUSH2 0x59 JUMPI DUP1 PUSH4 0x3477EE2E EQ PUSH2 0x75 JUMPI DUP1 PUSH4 0xA3DFB329 EQ PUSH2 0xA6 JUMPI DUP1 PUSH4 0xE6293CF0 EQ PUSH2 0xD6 JUMPI DUP1 PUSH4 0xE7BB7CBE EQ PUSH2 0xF2 JUMPI JUMPDEST PUSH0 DUP1 REVERT JUMPDEST PUSH2 0x73 PUSH1 0x4 DUP1 CALLDATASIZE SUB DUP2 ADD SWAP1 PUSH2 0x6E SWAP2 SWAP1 PUSH2 0x57B JUMP JUMPDEST PUSH2 0x110 JUMP JUMPDEST STOP JUMPDEST PUSH2 0x8F PUSH1 0x4 DUP1 CALLDATASIZE SUB DUP2 ADD SWAP1 PUSH2 0x8A SWAP2 SWAP1 PUSH2 0x57B JUMP JUMPDEST PUSH2 0x2AC JUMP JUMPDEST PUSH1 0x40 MLOAD PUSH2 0x9D SWAP3 SWAP2 SWAP1 PUSH2 0x63F JUMP JUMPDEST PUSH1 0x40 MLOAD DUP1 SWAP2 SUB SWAP1 RETURN JUMPDEST PUSH2 0xC0 PUSH1 0x4 DUP1 CALLDATASIZE SUB DUP2 ADD SWAP1 PUSH2 0xBB SWAP2 SWAP1 PUSH2 0x6C7 JUMP JUMPDEST PUSH2 0x360 JUMP JUMPDEST PUSH1 0x40 MLOAD PUSH2 0xCD SWAP2 SWAP1 PUSH2 0x70C JUMP JUMPDEST PUSH1 0x40 MLOAD DUP1 SWAP2 SUB SWAP1 RETURN JUMPDEST PUSH2 0xF0 PUSH1 0x4 DUP1 CALLDATASIZE SUB DUP2 ADD SWAP1 PUSH2 0xEB SWAP2 SWAP1 PUSH2 0x851 JUMP JUMPDEST PUSH2 0x37D JUMP JUMPDEST STOP JUMPDEST PUSH2 0xFA PUSH2 0x415 JUMP JUMPDEST PUSH1 0x40 MLOAD PUSH2 0x107 SWAP2 SWAP1 PUSH2 0x898 JUMP JUMPDEST PUSH1 0x40 MLOAD DUP1 SWAP2 SUB SWAP1 RETURN JUMPDEST PUSH0 ISZERO ISZERO PUSH1 0x1 PUSH0 CALLER PUSH20 0xFFFFFFFFFFFFFFFFFFFFFFFFFFFFFFFFFFFFFFFF AND PUSH20 0xFFFFFFFFFFFFFFFFFFFFFFFFFFFFFFFFFFFFFFFF AND DUP2 MSTORE PUSH1 0x20 ADD SWAP1 DUP2 MSTORE PUSH1 0x20 ADD PUSH0 KECCAK256 PUSH0 SWAP1 SLOAD SWAP1 PUSH2 0x100 EXP SWAP1 DIV PUSH1 0xFF AND ISZERO ISZERO EQ PUSH2 0x19F JUMPI PUSH1 0x40 MLOAD PUSH32 0x8C379A000000000000000000000000000000000000000000000000000000000 DUP2 MSTORE PUSH1 0x4 ADD PUSH2 0x196 SWAP1 PUSH2 0x902 JUMP JUMPDEST PUSH1 0x40 MLOAD DUP1 SWAP2 SUB SWAP1 REVERT JUMPDEST PUSH0 DUP1 SLOAD SWAP1 POP DUP2 LT PUSH2 0x1E5 JUMPI PUSH1 0x40 MLOAD PUSH32 0x8C379A000000000000000000000000000000000000000000000000000000000 DUP2 MSTORE PUSH1 0x4 ADD PUSH2 0x1DC SWAP1 PUSH2 0x96A JUMP JUMPDEST PUSH1 0x40 MLOAD DUP1 SWAP2 SUB SWAP1 REVERT JUMPDEST PUSH1 0x1 DUP1 PUSH0 CALLER PUSH20 0xFFFFFFFFFFFFFFFFFFFFFFFFFFFFFFFFFFFFFFFF AND PUSH20 0xFFFFFFFFFFFFFFFFFFFFFFFFFFFFFFFFFFFFFFFF AND DUP2 MSTORE PUSH1 0x20 ADD SWAP1 DUP2 MSTORE PUSH1 0x20 ADD PUSH0 KECCAK256 PUSH0 PUSH2 0x100 EXP DUP2 SLOAD DUP2 PUSH1 0xFF MUL NOT AND SWAP1 DUP4 ISZERO ISZERO MUL OR SWAP1 SSTORE POP PUSH0 DUP2 DUP2 SLOAD DUP2 LT PUSH2 0x24C JUMPI PUSH2 0x24B PUSH2 0x988 JUMP JUMPDEST JUMPDEST SWAP1 PUSH0 MSTORE PUSH1 0x20 PUSH0 KECCAK256 SWAP1 PUSH1 0x2 MUL ADD PUSH1 0x1 ADD PUSH0 DUP2 SLOAD DUP1 SWAP3 SWAP2 SWAP1 PUSH2 0x26B SWAP1 PUSH2 0x9E2 JUMP JUMPDEST SWAP2 SWAP1 POP SSTORE POP PUSH32 0xC591AA98F3E7D1C3A106F4653E39EBA694FCC03BA3C686DFBEFBF82F6B06BCEA CALLER TIMESTAMP PUSH1 0x40 MLOAD PUSH2 0x2A1 SWAP3 SWAP2 SWAP1 PUSH2 0xA38 JUMP JUMPDEST PUSH1 0x40 MLOAD DUP1 SWAP2 SUB SWAP1 LOG1 POP JUMP JUMPDEST PUSH0 DUP2 DUP2 SLOAD DUP2 LT PUSH2 0x2BA JUMPI PUSH0 DUP1 REVERT JUMPDEST SWAP1 PUSH0 MSTORE PUSH1 0x20 PUSH0 KECCAK256 SWAP1 PUSH1 0x2 MUL ADD PUSH0 SWAP2 POP SWAP1 POP DUP1 PUSH0 ADD DUP1 SLOAD PUSH2 0x2D9 SWAP1 PUSH2 0xA8C JUMP JUMPDEST DUP1 PUSH1 0x1F ADD PUSH1 0x20 DUP1 SWAP2 DIV MUL PUSH1 0x20 ADD PUSH1 0x40 MLOAD SWAP1 DUP2 ADD PUSH1 0x40 MSTORE DUP1 SWAP3 SWAP2 SWAP1 DUP2 DUP2 MSTORE PUSH1 0x20 ADD DUP3 DUP1 SLOAD PUSH2 0x305 SWAP1 PUSH2 0xA8C JUMP JUMPDEST DUP1 ISZERO PUSH2 0x350 JUMPI DUP1 PUSH1 0x1F LT PUSH2 0x327 JUMPI PUSH2 0x100 DUP1 DUP4 SLOAD DIV MUL DUP4 MSTORE SWAP2 PUSH1 0x20 ADD SWAP2 PUSH2 0x350 JUMP JUMPDEST DUP3 ADD SWAP2 SWAP1 PUSH0 MSTORE PUSH1 0x20 PUSH0 KECCAK256 SWAP1 JUMPDEST DUP2 SLOAD DUP2 MSTORE SWAP1 PUSH1 0x1 ADD SWAP1 PUSH1 0x20 ADD DUP1 DUP4 GT PUSH2 0x333 JUMPI DUP3 SWAP1 SUB PUSH1 0x1F AND DUP3 ADD SWAP2 JUMPDEST POP POP POP POP POP SWAP1 DUP1 PUSH1 0x1 ADD SLOAD SWAP1 POP DUP3 JUMP JUMPDEST PUSH1 0x1 PUSH1 0x20 MSTORE DUP1 PUSH0 MSTORE PUSH1 0x40 PUSH0 KECCAK256 PUSH0 SWAP2 POP SLOAD SWAP1 PUSH2 0x100 EXP SWAP1 DIV PUSH1 0xFF AND DUP2 JUMP JUMPDEST PUSH0 PUSH1 0x40 MLOAD DUP1 PUSH1 0x40 ADD PUSH1 0x40 MSTORE DUP1 DUP4 DUP2 MSTORE PUSH1 0x20 ADD PUSH0 DUP2 MSTORE POP SWAP1 DUP1 PUSH1 0x1 DUP2 SLOAD ADD DUP1 DUP3 SSTORE DUP1 SWAP2 POP POP PUSH1 0x1 SWAP1 SUB SWAP1 PUSH0 MSTORE PUSH1 0x20 PUSH0 KECCAK256 SWAP1 PUSH1 0x2 MUL ADD PUSH0 SWAP1 SWAP2 SWAP1 SWAP2 SWAP1 SWAP2 POP PUSH0 DUP3 ADD MLOAD DUP2 PUSH0 ADD SWAP1 DUP2 PUSH2 0x3CC SWAP2 SWAP1 PUSH2 0xC59 JUMP JUMPDEST POP PUSH1 0x20 DUP3 ADD MLOAD DUP2 PUSH1 0x1 ADD SSTORE POP POP PUSH32 0x8B83E76785DEF4A83E97694F773B79E48BC478B41ED4BA5780C6D44684212B14 CALLER TIMESTAMP PUSH1 0x40 MLOAD PUSH2 0x40A SWAP3 SWAP2 SWAP1 PUSH2 0xA38 JUMP JUMPDEST PUSH1 0x40 MLOAD DUP1 SWAP2 SUB SWAP1 LOG1 POP JUMP JUMPDEST PUSH1 0x60 PUSH0 DUP1 PUSH0 JUMPDEST PUSH0 DUP1 SLOAD SWAP1 POP DUP2 LT ISZERO PUSH2 0x487 JUMPI DUP2 PUSH0 DUP3 DUP2 SLOAD DUP2 LT PUSH2 0x43B JUMPI PUSH2 0x43A PUSH2 0x988 JUMP JUMPDEST JUMPDEST SWAP1 PUSH0 MSTORE PUSH1 0x20 PUSH0 KECCAK256 SWAP1 PUSH1 0x2 MUL ADD PUSH1 0x1 ADD SLOAD GT ISZERO PUSH2 0x47A JUMPI PUSH0 DUP2 DUP2 SLOAD DUP2 LT PUSH2 0x464 JUMPI PUSH2 0x463 PUSH2 0x988 JUMP JUMPDEST JUMPDEST SWAP1 PUSH0 MSTORE PUSH1 0x20 PUSH0 KECCAK256 SWAP1 PUSH1 0x2 MUL ADD PUSH1 0x1 ADD SLOAD SWAP2 POP DUP1 SWAP3 POP JUMPDEST DUP1 DUP1 PUSH1 0x1 ADD SWAP2 POP POP PUSH2 0x41B JUMP JUMPDEST POP PUSH0 DUP3 DUP2 SLOAD DUP2 LT PUSH2 0x49B JUMPI PUSH2 0x49A PUSH2 0x988 JUMP JUMPDEST JUMPDEST SWAP1 PUSH0 MSTORE PUSH1 0x20 PUSH0 KECCAK256 SWAP1 PUSH1 0x2 MUL ADD PUSH0 ADD DUP1 SLOAD PUSH2 0x4B4 SWAP1 PUSH2 0xA8C JUMP JUMPDEST DUP1 PUSH1 0x1F ADD PUSH1 0x20 DUP1 SWAP2 DIV MUL PUSH1 0x20 ADD PUSH1 0x40 MLOAD SWAP1 DUP2 ADD PUSH1 0x40 MSTORE DUP1 SWAP3 SWAP2 SWAP1 DUP2 DUP2 MSTORE PUSH1 0x20 ADD DUP3 DUP1 SLOAD PUSH2 0x4E0 SWAP1 PUSH2 0xA8C JUMP JUMPDEST DUP1 ISZERO PUSH2 0x52B JUMPI DUP1 PUSH1 0x1F LT PUSH2 0x502 JUMPI PUSH2 0x100 DUP1 DUP4 SLOAD DIV MUL DUP4 MSTORE SWAP2 PUSH1 0x20 ADD SWAP2 PUSH2 0x52B JUMP JUMPDEST DUP3 ADD SWAP2 SWAP1 PUSH0 MSTORE PUSH1 0x20 PUSH0 KECCAK256 SWAP1 JUMPDEST DUP2 SLOAD DUP2 MSTORE SWAP1 PUSH1 0x1 ADD SWAP1 PUSH1 0x20 ADD DUP1 DUP4 GT PUSH2 0x50E JUMPI DUP3 SWAP1 SUB PUSH1 0x1F AND DUP3 ADD SWAP2 JUMPDEST POP POP POP POP POP SWAP3 POP POP POP SWAP1 JUMP JUMPDEST PUSH0 PUSH1 0x40 MLOAD SWAP1 POP SWAP1 JUMP JUMPDEST PUSH0 DUP1 REVERT JUMPDEST PUSH0 DUP1 REVERT JUMPDEST PUSH0 DUP2 SWAP1 POP SWAP2 SWAP1 POP JUMP JUMPDEST PUSH2 0x55A DUP2 PUSH2 0x548 JUMP JUMPDEST DUP2 EQ PUSH2 0x564 JUMPI PUSH0 DUP1 REVERT JUMPDEST POP JUMP JUMPDEST PUSH0 DUP2 CALLDATALOAD SWAP1 POP PUSH2 0x575 DUP2 PUSH2 0x551 JUMP JUMPDEST SWAP3 SWAP2 POP POP JUMP JUMPDEST PUSH0 PUSH1 0x20 DUP3 DUP5 SUB SLT ISZERO PUSH2 0x590 JUMPI PUSH2 0x58F PUSH2 0x540 JUMP JUMPDEST JUMPDEST PUSH0 PUSH2 0x59D DUP5 DUP3 DUP6 ADD PUSH2 0x567 JUMP JUMPDEST SWAP2 POP POP SWAP3 SWAP2 POP POP JUMP JUMPDEST PUSH0 DUP2 MLOAD SWAP1 POP SWAP2 SWAP1 POP JUMP JUMPDEST PUSH0 DUP3 DUP3 MSTORE PUSH1 0x20 DUP3 ADD SWAP1 POP SWAP3 SWAP2 POP POP JUMP JUMPDEST PUSH0 JUMPDEST DUP4 DUP2 LT ISZERO PUSH2 0x5DD JUMPI DUP1 DUP3 ADD MLOAD DUP2 DUP5 ADD MSTORE PUSH1 0x20 DUP2 ADD SWAP1 POP PUSH2 0x5C2 JUMP JUMPDEST PUSH0 DUP5 DUP5 ADD MSTORE POP POP POP POP JUMP JUMPDEST PUSH0 PUSH1 0x1F NOT PUSH1 0x1F DUP4 ADD AND SWAP1 POP SWAP2 SWAP1 POP JUMP JUMPDEST PUSH0 PUSH2 0x602 DUP3 PUSH2 0x5A6 JUMP JUMPDEST PUSH2 0x60C DUP2 DUP6 PUSH2 0x5B0 JUMP JUMPDEST SWAP4 POP PUSH2 0x61C DUP2 DUP6 PUSH1 0x20 DUP7 ADD PUSH2 0x5C0 JUMP JUMPDEST PUSH2 0x625 DUP2 PUSH2 0x5E8 JUMP JUMPDEST DUP5 ADD SWAP2 POP POP SWAP3 SWAP2 POP POP JUMP JUMPDEST PUSH2 0x639 DUP2 PUSH2 0x548 JUMP JUMPDEST DUP3 MSTORE POP POP JUMP JUMPDEST PUSH0 PUSH1 0x40 DUP3 ADD SWAP1 POP DUP2 DUP2 SUB PUSH0 DUP4 ADD MSTORE PUSH2 0x657 DUP2 DUP6 PUSH2 0x5F8 JUMP JUMPDEST SWAP1 POP PUSH2 0x666 PUSH1 0x20 DUP4 ADD DUP5 PUSH2 0x630 JUMP JUMPDEST SWAP4 SWAP3 POP POP POP JUMP JUMPDEST PUSH0 PUSH20 0xFFFFFFFFFFFFFFFFFFFFFFFFFFFFFFFFFFFFFFFF DUP3 AND SWAP1 POP SWAP2 SWAP1 POP JUMP JUMPDEST PUSH0 PUSH2 0x696 DUP3 PUSH2 0x66D JUMP JUMPDEST SWAP1 POP SWAP2 SWAP1 POP JUMP JUMPDEST PUSH2 0x6A6 DUP2 PUSH2 0x68C JUMP JUMPDEST DUP2 EQ PUSH2 0x6B0 JUMPI PUSH0 DUP1 REVERT JUMPDEST POP JUMP JUMPDEST PUSH0 DUP2 CALLDATALOAD SWAP1 POP PUSH2 0x6C1 DUP2 PUSH2 0x69D JUMP JUMPDEST SWAP3 SWAP2 POP POP JUMP JUMPDEST PUSH0 PUSH1 0x20 DUP3 DUP5 SUB SLT ISZERO PUSH2 0x6DC JUMPI PUSH2 0x6DB PUSH2 0x540 JUMP JUMPDEST JUMPDEST PUSH0 PUSH2 0x6E9 DUP5 DUP3 DUP6 ADD PUSH2 0x6B3 JUMP JUMPDEST SWAP2 POP POP SWAP3 SWAP2 POP POP JUMP JUMPDEST PUSH0 DUP2 ISZERO ISZERO SWAP1 POP SWAP2 SWAP1 POP JUMP JUMPDEST PUSH2 0x706 DUP2 PUSH2 0x6F2 JUMP JUMPDEST DUP3 MSTORE POP POP JUMP JUMPDEST PUSH0 PUSH1 0x20 DUP3 ADD SWAP1 POP PUSH2 0x71F PUSH0 DUP4 ADD DUP5 PUSH2 0x6FD JUMP JUMPDEST SWAP3 SWAP2 POP POP JUMP JUMPDEST PUSH0 DUP1 REVERT JUMPDEST PUSH0 DUP1 REVERT JUMPDEST PUSH32 0x4E487B7100000000000000000000000000000000000000000000000000000000 PUSH0 MSTORE PUSH1 0x41 PUSH1 0x4 MSTORE PUSH1 0x24 PUSH0 REVERT JUMPDEST PUSH2 0x763 DUP3 PUSH2 0x5E8 JUMP JUMPDEST DUP2 ADD DUP2 DUP2 LT PUSH8 0xFFFFFFFFFFFFFFFF DUP3 GT OR ISZERO PUSH2 0x782 JUMPI PUSH2 0x781 PUSH2 0x72D JUMP JUMPDEST JUMPDEST DUP1 PUSH1 0x40 MSTORE POP POP POP JUMP JUMPDEST PUSH0 PUSH2 0x794 PUSH2 0x537 JUMP JUMPDEST SWAP1 POP PUSH2 0x7A0 DUP3 DUP3 PUSH2 0x75A JUMP JUMPDEST SWAP2 SWAP1 POP JUMP JUMPDEST PUSH0 PUSH8 0xFFFFFFFFFFFFFFFF DUP3 GT ISZERO PUSH2 0x7BF JUMPI PUSH2 0x7BE PUSH2 0x72D JUMP JUMPDEST JUMPDEST PUSH2 0x7C8 DUP3 PUSH2 0x5E8 JUMP JUMPDEST SWAP1 POP PUSH1 0x20 DUP2 ADD SWAP1 POP SWAP2 SWAP1 POP JUMP JUMPDEST DUP3 DUP2 DUP4 CALLDATACOPY PUSH0 DUP4 DUP4 ADD MSTORE POP POP POP JUMP JUMPDEST PUSH0 PUSH2 0x7F5 PUSH2 0x7F0 DUP5 PUSH2 0x7A5 JUMP JUMPDEST PUSH2 0x78B JUMP JUMPDEST SWAP1 POP DUP3 DUP2 MSTORE PUSH1 0x20 DUP2 ADD DUP5 DUP5 DUP5 ADD GT ISZERO PUSH2 0x811 JUMPI PUSH2 0x810 PUSH2 0x729 JUMP JUMPDEST JUMPDEST PUSH2 0x81C DUP5 DUP3 DUP6 PUSH2 0x7D5 JUMP JUMPDEST POP SWAP4 SWAP3 POP POP POP JUMP JUMPDEST PUSH0 DUP3 PUSH1 0x1F DUP4 ADD SLT PUSH2 0x838 JUMPI PUSH2 0x837 PUSH2 0x725 JUMP JUMPDEST JUMPDEST DUP2 CALLDATALOAD PUSH2 0x848 DUP5 DUP3 PUSH1 0x20 DUP7 ADD PUSH2 0x7E3 JUMP JUMPDEST SWAP2 POP POP SWAP3 SWAP2 POP POP JUMP JUMPDEST PUSH0 PUSH1 0x20 DUP3 DUP5 SUB SLT ISZERO PUSH2 0x866 JUMPI PUSH2 0x865 PUSH2 0x540 JUMP JUMPDEST JUMPDEST PUSH0 DUP3 ADD CALLDATALOAD PUSH8 0xFFFFFFFFFFFFFFFF DUP2 GT ISZERO PUSH2 0x883 JUMPI PUSH2 0x882 PUSH2 0x544 JUMP JUMPDEST JUMPDEST PUSH2 0x88F DUP5 DUP3 DUP6 ADD PUSH2 0x824 JUMP JUMPDEST SWAP2 POP POP SWAP3 SWAP2 POP POP JUMP JUMPDEST PUSH0 PUSH1 0x20 DUP3 ADD SWAP1 POP DUP2 DUP2 SUB PUSH0 DUP4 ADD MSTORE PUSH2 0x8B0 DUP2 DUP5 PUSH2 0x5F8 JUMP JUMPDEST SWAP1 POP SWAP3 SWAP2 POP POP JUMP JUMPDEST PUSH32 0x596F75204861766520416C726561647920566F74650000000000000000000000 PUSH0 DUP3 ADD MSTORE POP JUMP JUMPDEST PUSH0 PUSH2 0x8EC PUSH1 0x15 DUP4 PUSH2 0x5B0 JUMP JUMPDEST SWAP2 POP PUSH2 0x8F7 DUP3 PUSH2 0x8B8 JUMP JUMPDEST PUSH1 0x20 DUP3 ADD SWAP1 POP SWAP2 SWAP1 POP JUMP JUMPDEST PUSH0 PUSH1 0x20 DUP3 ADD SWAP1 POP DUP2 DUP2 SUB PUSH0 DUP4 ADD MSTORE PUSH2 0x919 DUP2 PUSH2 0x8E0 JUMP JUMPDEST SWAP1 POP SWAP2 SWAP1 POP JUMP JUMPDEST PUSH32 0x496E76616C69642043616E64696461746520496E646578000000000000000000 PUSH0 DUP3 ADD MSTORE POP JUMP JUMPDEST PUSH0 PUSH2 0x954 PUSH1 0x17 DUP4 PUSH2 0x5B0 JUMP JUMPDEST SWAP2 POP PUSH2 0x95F DUP3 PUSH2 0x920 JUMP JUMPDEST PUSH1 0x20 DUP3 ADD SWAP1 POP SWAP2 SWAP1 POP JUMP JUMPDEST PUSH0 PUSH1 0x20 DUP3 ADD SWAP1 POP DUP2 DUP2 SUB PUSH0 DUP4 ADD MSTORE PUSH2 0x981 DUP2 PUSH2 0x948 JUMP JUMPDEST SWAP1 POP SWAP2 SWAP1 POP JUMP JUMPDEST PUSH32 0x4E487B7100000000000000000000000000000000000000000000000000000000 PUSH0 MSTORE PUSH1 0x32 PUSH1 0x4 MSTORE PUSH1 0x24 PUSH0 REVERT JUMPDEST PUSH32 0x4E487B7100000000000000000000000000000000000000000000000000000000 PUSH0 MSTORE PUSH1 0x11 PUSH1 0x4 MSTORE PUSH1 0x24 PUSH0 REVERT JUMPDEST PUSH0 PUSH2 0x9EC DUP3 PUSH2 0x548 JUMP JUMPDEST SWAP2 POP PUSH32 0xFFFFFFFFFFFFFFFFFFFFFFFFFFFFFFFFFFFFFFFFFFFFFFFFFFFFFFFFFFFFFFFF DUP3 SUB PUSH2 0xA1E JUMPI PUSH2 0xA1D PUSH2 0x9B5 JUMP JUMPDEST JUMPDEST PUSH1 0x1 DUP3 ADD SWAP1 POP SWAP2 SWAP1 POP JUMP JUMPDEST PUSH2 0xA32 DUP2 PUSH2 0x68C JUMP JUMPDEST DUP3 MSTORE POP POP JUMP JUMPDEST PUSH0 PUSH1 0x40 DUP3 ADD SWAP1 POP PUSH2 0xA4B PUSH0 DUP4 ADD DUP6 PUSH2 0xA29 JUMP JUMPDEST PUSH2 0xA58 PUSH1 0x20 DUP4 ADD DUP5 PUSH2 0x630 JUMP JUMPDEST SWAP4 SWAP3 POP POP POP JUMP JUMPDEST PUSH32 0x4E487B7100000000000000000000000000000000000000000000000000000000 PUSH0 MSTORE PUSH1 0x22 PUSH1 0x4 MSTORE PUSH1 0x24 PUSH0 REVERT JUMPDEST PUSH0 PUSH1 0x2 DUP3 DIV SWAP1 POP PUSH1 0x1 DUP3 AND DUP1 PUSH2 0xAA3 JUMPI PUSH1 0x7F DUP3 AND SWAP2 POP JUMPDEST PUSH1 0x20 DUP3 LT DUP2 SUB PUSH2 0xAB6 JUMPI PUSH2 0xAB5 PUSH2 0xA5F JUMP JUMPDEST JUMPDEST POP SWAP2 SWAP1 POP JUMP JUMPDEST PUSH0 DUP2 SWAP1 POP DUP2 PUSH0 MSTORE PUSH1 0x20 PUSH0 KECCAK256 SWAP1 POP SWAP2 SWAP1 POP JUMP JUMPDEST PUSH0 PUSH1 0x20 PUSH1 0x1F DUP4 ADD DIV SWAP1 POP SWAP2 SWAP1 POP JUMP JUMPDEST PUSH0 DUP3 DUP3 SHL SWAP1 POP SWAP3 SWAP2 POP POP JUMP JUMPDEST PUSH0 PUSH1 0x8 DUP4 MUL PUSH2 0xB18 PUSH32 0xFFFFFFFFFFFFFFFFFFFFFFFFFFFFFFFFFFFFFFFFFFFFFFFFFFFFFFFFFFFFFFFF DUP3 PUSH2 0xADD JUMP JUMPDEST PUSH2 0xB22 DUP7 DUP4 PUSH2 0xADD JUMP JUMPDEST SWAP6 POP DUP1 NOT DUP5 AND SWAP4 POP DUP1 DUP7 AND DUP5 OR SWAP3 POP POP POP SWAP4 SWAP3 POP POP POP JUMP JUMPDEST PUSH0 DUP2 SWAP1 POP SWAP2 SWAP1 POP JUMP JUMPDEST PUSH0 PUSH2 0xB5D PUSH2 0xB58 PUSH2 0xB53 DUP5 PUSH2 0x548 JUMP JUMPDEST PUSH2 0xB3A JUMP JUMPDEST PUSH2 0x548 JUMP JUMPDEST SWAP1 POP SWAP2 SWAP1 POP JUMP JUMPDEST PUSH0 DUP2 SWAP1 POP SWAP2 SWAP1 POP JUMP JUMPDEST PUSH2 0xB76 DUP4 PUSH2 0xB43 JUMP JUMPDEST PUSH2 0xB8A PUSH2 0xB82 DUP3 PUSH2 0xB64 JUMP JUMPDEST DUP5 DUP5 SLOAD PUSH2 0xAE9 JUMP JUMPDEST DUP3 SSTORE POP POP POP POP JUMP JUMPDEST PUSH0 SWAP1 JUMP JUMPDEST PUSH2 0xB9E PUSH2 0xB92 JUMP JUMPDEST PUSH2 0xBA9 DUP2 DUP5 DUP5 PUSH2 0xB6D JUMP JUMPDEST POP POP POP JUMP JUMPDEST JUMPDEST DUP2 DUP2 LT ISZERO PUSH2 0xBCC JUMPI PUSH2 0xBC1 PUSH0 DUP3 PUSH2 0xB96 JUMP JUMPDEST PUSH1 0x1 DUP2 ADD SWAP1 POP PUSH2 0xBAF JUMP JUMPDEST POP POP JUMP JUMPDEST PUSH1 0x1F DUP3 GT ISZERO PUSH2 0xC11 JUMPI PUSH2 0xBE2 DUP2 PUSH2 0xABC JUMP JUMPDEST PUSH2 0xBEB DUP5 PUSH2 0xACE JUMP JUMPDEST DUP2 ADD PUSH1 0x20 DUP6 LT ISZERO PUSH2 0xBFA JUMPI DUP2 SWAP1 POP JUMPDEST PUSH2 0xC0E PUSH2 0xC06 DUP6 PUSH2 0xACE JUMP JUMPDEST DUP4 ADD DUP3 PUSH2 0xBAE JUMP JUMPDEST POP POP JUMPDEST POP POP POP JUMP JUMPDEST PUSH0 DUP3 DUP3 SHR SWAP1 POP SWAP3 SWAP2 POP POP JUMP JUMPDEST PUSH0 PUSH2 0xC31 PUSH0 NOT DUP5 PUSH1 0x8 MUL PUSH2 0xC16 JUMP JUMPDEST NOT DUP1 DUP4 AND SWAP2 POP POP SWAP3 SWAP2 POP POP JUMP JUMPDEST PUSH0 PUSH2 0xC49 DUP4 DUP4 PUSH2 0xC22 JUMP JUMPDEST SWAP2 POP DUP3 PUSH1 0x2 MUL DUP3 OR SWAP1 POP SWAP3 SWAP2 POP POP JUMP JUMPDEST PUSH2 0xC62 DUP3 PUSH2 0x5A6 JUMP JUMPDEST PUSH8 0xFFFFFFFFFFFFFFFF DUP2 GT ISZERO PUSH2 0xC7B JUMPI PUSH2 0xC7A PUSH2 0x72D JUMP JUMPDEST JUMPDEST PUSH2 0xC85 DUP3 SLOAD PUSH2 0xA8C JUMP JUMPDEST PUSH2 0xC90 DUP3 DUP3 DUP6 PUSH2 0xBD0 JUMP JUMPDEST PUSH0 PUSH1 0x20 SWAP1 POP PUSH1 0x1F DUP4 GT PUSH1 0x1 DUP2 EQ PUSH2 0xCC1 JUMPI PUSH0 DUP5 ISZERO PUSH2 0xCAF JUMPI DUP3 DUP8 ADD MLOAD SWAP1 POP JUMPDEST PUSH2 0xCB9 DUP6 DUP3 PUSH2 0xC3E JUMP JUMPDEST DUP7 SSTORE POP PUSH2 0xD20 JUMP JUMPDEST PUSH1 0x1F NOT DUP5 AND PUSH2 0xCCF DUP7 PUSH2 0xABC JUMP JUMPDEST PUSH0 JUMPDEST DUP3 DUP2 LT ISZERO PUSH2 0xCF6 JUMPI DUP5 DUP10 ADD MLOAD DUP3 SSTORE PUSH1 0x1 DUP3 ADD SWAP2 POP PUSH1 0x20 DUP6 ADD SWAP5 POP PUSH1 0x20 DUP2 ADD SWAP1 POP PUSH2 0xCD1 JUMP JUMPDEST DUP7 DUP4 LT ISZERO PUSH2 0xD13 JUMPI DUP5 DUP10 ADD MLOAD PUSH2 0xD0F PUSH1 0x1F DUP10 AND DUP3 PUSH2 0xC22 JUMP JUMPDEST DUP4 SSTORE POP JUMPDEST PUSH1 0x1 PUSH1 0x2 DUP9 MUL ADD DUP9 SSTORE POP POP POP JUMPDEST POP POP POP POP POP POP JUMP INVALID LOG2 PUSH5 0x6970667358 0x22 SLT KECCAK256 SWAP6 LOG0 ISZERO SWAP5 0xEC STATICCALL PUSH5 0x5BD3A553BD 0xD5 PUSH18 0x37E7C6410639C5BE5737E9E2E6C78DC1507E PUSH5 0x736F6C6343 STOP ADDMOD AND STOP CALLER "
				},
				"gasEstimates": {
					"creation": {
						"codeDepositCost": "684400",
						"executionCost": "713",
						"totalCost": "685113"
					},
					"external": {
						"candidates(uint256)": "infinite",
						"getwinner()": "infinite",
						"hasvote(address)": "2855",
						"proposecandidate(string)": "infinite",
						"vote(uint256)": "infinite"
					}
				},
				"methodIdentifiers": {
					"candidates(uint256)": "3477ee2e",
					"getwinner()": "e7bb7cbe",
					"hasvote(address)": "a3dfb329",
					"proposecandidate(string)": "e6293cf0",
					"vote(uint256)": "0121b93f"
				}
			},
			"storageLayout": {
				"storage": [
					{
						"astId": 10,
						"contract": "contracts/Vote.sol:Vote",
						"label": "candidates",
						"offset": 0,
						"slot": "0",
						"type": "t_array(t_struct(candidate)6_storage)dyn_storage"
					},
					{
						"astId": 14,
						"contract": "contracts/Vote.sol:Vote",
						"label": "hasvote",
						"offset": 0,
						"slot": "1",
						"type": "t_mapping(t_address,t_bool)"
					}
				],
				"types": {
					"t_address": {
						"encoding": "inplace",
						"label": "address",
						"numberOfBytes": "20"
					},
					"t_array(t_struct(candidate)6_storage)dyn_storage": {
						"base": "t_struct(candidate)6_storage",
						"encoding": "dynamic_array",
						"label": "struct Vote.candidate[]",
						"numberOfBytes": "32"
					},
					"t_bool": {
						"encoding": "inplace",
						"label": "bool",
						"numberOfBytes": "1"
					},
					"t_mapping(t_address,t_bool)": {
						"encoding": "mapping",
						"key": "t_address",
						"label": "mapping(address => bool)",
						"numberOfBytes": "32",
						"value": "t_bool"
					},
					"t_string_storage": {
						"encoding": "bytes",
						"label": "string",
						"numberOfBytes": "32"
					},
					"t_struct(candidate)6_storage": {
						"encoding": "inplace",
						"label": "struct Vote.candidate",
						"members": [
							{
								"astId": 3,
								"contract": "contracts/Vote.sol:Vote",
								"label": "name",
								"offset": 0,
								"slot": "0",
								"type": "t_string_storage"
							},
							{
								"astId": 5,
								"contract": "contracts/Vote.sol:Vote",
								"label": "votecount",
								"offset": 0,
								"slot": "1",
								"type": "t_uint256"
							}
						],
						"numberOfBytes": "64"
					},
					"t_uint256": {
						"encoding": "inplace",
						"label": "uint256",
						"numberOfBytes": "32"
					}
				}
			},
			"userdoc": {
				"kind": "user",
				"methods": {},
				"version": 1
			}
		}
	}
}