{
	"contracts/SimpleMath.sol": {
		"SimpleMath": {
			"abi": [
				{
					"inputs": [
						{
							"internalType": "uint256",
							"name": "a",
							"type": "uint256"
						},
						{
							"internalType": "uint256",
							"name": "b",
							"type": "uint256"
						},
						{
							"internalType": "uint256",
							"name": "c",
							"type": "uint256"
						}
					],
					"name": "average",
					"outputs": [
						{
							"internalType": "uint256",
							"name": "",
							"type": "uint256"
						}
					],
					"stateMutability": "pure",
					"type": "function"
				},
				{
					"inputs": [
						{
							"internalType": "uint256",
							"name": "a",
							"type": "uint256"
						},
						{
							"internalType": "uint256",
							"name": "b",
							"type": "uint256"
						}
					],
					"name": "max",
					"outputs": [
						{
							"internalType": "uint256",
							"name": "",
							"type": "uint256"
						}
					],
					"stateMutability": "pure",
					"type": "function"
				}
			],
			"devdoc": {
				"kind": "dev",
				"methods": {},
				"version": 1
			},
			"evm": {
				"assembly": "    /* \"contracts/SimpleMath.sol\":66:326  contract SimpleMath {... */\n  mstore(0x40, 0x80)\n  callvalue\n  dup1\n  iszero\n  tag_1\n  jumpi\n  0x00\n  dup1\n  revert\ntag_1:\n  pop\n  dataSize(sub_0)\n  dup1\n  dataOffset(sub_0)\n  0x00\n  codecopy\n  0x00\n  return\nstop\n\nsub_0: assembly {\n        /* \"contracts/SimpleMath.sol\":66:326  contract SimpleMath {... */\n      mstore(0x40, 0x80)\n      callvalue\n      dup1\n      iszero\n      tag_1\n      jumpi\n      0x00\n      dup1\n      revert\n    tag_1:\n      pop\n      jumpi(tag_2, lt(calldatasize, 0x04))\n      shr(0xe0, calldataload(0x00))\n      dup1\n      0x0c826809\n      eq\n      tag_3\n      jumpi\n      dup1\n      0x6d5433e6\n      eq\n      tag_4\n      jumpi\n    tag_2:\n      0x00\n      dup1\n      revert\n        /* \"contracts/SimpleMath.sol\":250:324  function average(uint a, uint b, uint c) public pure returns (uint){... */\n    tag_3:\n      tag_5\n      0x04\n      dup1\n      calldatasize\n      sub\n      dup2\n      add\n      swap1\n      tag_6\n      swap2\n      swap1\n      tag_7\n      jump\t// in\n    tag_6:\n      tag_8\n      jump\t// in\n    tag_5:\n      mload(0x40)\n      tag_9\n      swap2\n      swap1\n      tag_10\n      jump\t// in\n    tag_9:\n      mload(0x40)\n      dup1\n      swap2\n      sub\n      swap1\n      return\n        /* \"contracts/SimpleMath.sol\":92:247  function max(uint a , uint b) public pure returns (uint){... */\n    tag_4:\n      tag_11\n      0x04\n      dup1\n      calldatasize\n      sub\n      dup2\n      add\n      swap1\n      tag_12\n      swap2\n      swap1\n      tag_13\n      jump\t// in\n    tag_12:\n      tag_14\n      jump\t// in\n    tag_11:\n      mload(0x40)\n      tag_15\n      swap2\n      swap1\n      tag_10\n      jump\t// in\n    tag_15:\n      mload(0x40)\n      dup1\n      swap2\n      sub\n      swap1\n      return\n        /* \"contracts/SimpleMath.sol\":250:324  function average(uint a, uint b, uint c) public pure returns (uint){... */\n    tag_8:\n        /* \"contracts/SimpleMath.sol\":312:316  uint */\n      0x00\n        /* \"contracts/SimpleMath.sol\":250:324  function average(uint a, uint b, uint c) public pure returns (uint){... */\n      swap4\n      swap3\n      pop\n      pop\n      pop\n      jump\t// out\n        /* \"contracts/SimpleMath.sol\":92:247  function max(uint a , uint b) public pure returns (uint){... */\n    tag_14:\n        /* \"contracts/SimpleMath.sol\":143:147  uint */\n      0x00\n        /* \"contracts/SimpleMath.sol\":152:163  uint result */\n      dup1\n        /* \"contracts/SimpleMath.sol\":174:175  b */\n      dup3\n        /* \"contracts/SimpleMath.sol\":170:171  a */\n      dup5\n        /* \"contracts/SimpleMath.sol\":170:175  a > b */\n      gt\n        /* \"contracts/SimpleMath.sol\":167:227  if(a > b)... */\n      iszero\n      tag_18\n      jumpi\n        /* \"contracts/SimpleMath.sol\":193:194  a */\n      dup4\n        /* \"contracts/SimpleMath.sol\":185:194  result =a */\n      swap1\n      pop\n        /* \"contracts/SimpleMath.sol\":167:227  if(a > b)... */\n      jump(tag_19)\n    tag_18:\n        /* \"contracts/SimpleMath.sol\":221:222  b */\n      dup3\n        /* \"contracts/SimpleMath.sol\":212:222  result = b */\n      swap1\n      pop\n        /* \"contracts/SimpleMath.sol\":167:227  if(a > b)... */\n    tag_19:\n        /* \"contracts/SimpleMath.sol\":237:243  result */\n      dup1\n        /* \"contracts/SimpleMath.sol\":230:243  return result */\n      swap2\n      pop\n      pop\n        /* \"contracts/SimpleMath.sol\":92:247  function max(uint a , uint b) public pure returns (uint){... */\n      swap3\n      swap2\n      pop\n      pop\n      jump\t// out\n        /* \"#utility.yul\":88:205   */\n    tag_21:\n        /* \"#utility.yul\":197:198   */\n      0x00\n        /* \"#utility.yul\":194:195   */\n      dup1\n        /* \"#utility.yul\":187:199   */\n      revert\n        /* \"#utility.yul\":334:411   */\n    tag_23:\n        /* \"#utility.yul\":371:378   */\n      0x00\n        /* \"#utility.yul\":400:405   */\n      dup2\n        /* \"#utility.yul\":389:405   */\n      swap1\n      pop\n        /* \"#utility.yul\":334:411   */\n      swap2\n      swap1\n      pop\n      jump\t// out\n        /* \"#utility.yul\":417:539   */\n    tag_24:\n        /* \"#utility.yul\":490:514   */\n      tag_33\n        /* \"#utility.yul\":508:513   */\n      dup2\n        /* \"#utility.yul\":490:514   */\n      tag_23\n      jump\t// in\n    tag_33:\n        /* \"#utility.yul\":483:488   */\n      dup2\n        /* \"#utility.yul\":480:515   */\n      eq\n        /* \"#utility.yul\":470:533   */\n      tag_34\n      jumpi\n        /* \"#utility.yul\":529:530   */\n      0x00\n        /* \"#utility.yul\":526:527   */\n      dup1\n        /* \"#utility.yul\":519:531   */\n      revert\n        /* \"#utility.yul\":470:533   */\n    tag_34:\n        /* \"#utility.yul\":417:539   */\n      pop\n      jump\t// out\n        /* \"#utility.yul\":545:684   */\n    tag_25:\n        /* \"#utility.yul\":591:596   */\n      0x00\n        /* \"#utility.yul\":629:635   */\n      dup2\n        /* \"#utility.yul\":616:636   */\n      calldataload\n        /* \"#utility.yul\":607:636   */\n      swap1\n      pop\n        /* \"#utility.yul\":645:678   */\n      tag_36\n        /* \"#utility.yul\":672:677   */\n      dup2\n        /* \"#utility.yul\":645:678   */\n      tag_24\n      jump\t// in\n    tag_36:\n        /* \"#utility.yul\":545:684   */\n      swap3\n      swap2\n      pop\n      pop\n      jump\t// out\n        /* \"#utility.yul\":690:1309   */\n    tag_7:\n        /* \"#utility.yul\":767:773   */\n      0x00\n        /* \"#utility.yul\":775:781   */\n      dup1\n        /* \"#utility.yul\":783:789   */\n      0x00\n        /* \"#utility.yul\":832:834   */\n      0x60\n        /* \"#utility.yul\":820:829   */\n      dup5\n        /* \"#utility.yul\":811:818   */\n      dup7\n        /* \"#utility.yul\":807:830   */\n      sub\n        /* \"#utility.yul\":803:835   */\n      slt\n        /* \"#utility.yul\":800:919   */\n      iszero\n      tag_38\n      jumpi\n        /* \"#utility.yul\":838:917   */\n      tag_39\n      tag_21\n      jump\t// in\n    tag_39:\n        /* \"#utility.yul\":800:919   */\n    tag_38:\n        /* \"#utility.yul\":958:959   */\n      0x00\n        /* \"#utility.yul\":983:1036   */\n      tag_40\n        /* \"#utility.yul\":1028:1035   */\n      dup7\n        /* \"#utility.yul\":1019:1025   */\n      dup3\n        /* \"#utility.yul\":1008:1017   */\n      dup8\n        /* \"#utility.yul\":1004:1026   */\n      add\n        /* \"#utility.yul\":983:1036   */\n      tag_25\n      jump\t// in\n    tag_40:\n        /* \"#utility.yul\":973:1036   */\n      swap4\n      pop\n        /* \"#utility.yul\":929:1046   */\n      pop\n        /* \"#utility.yul\":1085:1087   */\n      0x20\n        /* \"#utility.yul\":1111:1164   */\n      tag_41\n        /* \"#utility.yul\":1156:1163   */\n      dup7\n        /* \"#utility.yul\":1147:1153   */\n      dup3\n        /* \"#utility.yul\":1136:1145   */\n      dup8\n        /* \"#utility.yul\":1132:1154   */\n      add\n        /* \"#utility.yul\":1111:1164   */\n      tag_25\n      jump\t// in\n    tag_41:\n        /* \"#utility.yul\":1101:1164   */\n      swap3\n      pop\n        /* \"#utility.yul\":1056:1174   */\n      pop\n        /* \"#utility.yul\":1213:1215   */\n      0x40\n        /* \"#utility.yul\":1239:1292   */\n      tag_42\n        /* \"#utility.yul\":1284:1291   */\n      dup7\n        /* \"#utility.yul\":1275:1281   */\n      dup3\n        /* \"#utility.yul\":1264:1273   */\n      dup8\n        /* \"#utility.yul\":1260:1282   */\n      add\n        /* \"#utility.yul\":1239:1292   */\n      tag_25\n      jump\t// in\n    tag_42:\n        /* \"#utility.yul\":1229:1292   */\n      swap2\n      pop\n        /* \"#utility.yul\":1184:1302   */\n      pop\n        /* \"#utility.yul\":690:1309   */\n      swap3\n      pop\n      swap3\n      pop\n      swap3\n      jump\t// out\n        /* \"#utility.yul\":1315:1433   */\n    tag_26:\n        /* \"#utility.yul\":1402:1426   */\n      tag_44\n        /* \"#utility.yul\":1420:1425   */\n      dup2\n        /* \"#utility.yul\":1402:1426   */\n      tag_23\n      jump\t// in\n    tag_44:\n        /* \"#utility.yul\":1397:1400   */\n      dup3\n        /* \"#utility.yul\":1390:1427   */\n      mstore\n        /* \"#utility.yul\":1315:1433   */\n      pop\n      pop\n      jump\t// out\n        /* \"#utility.yul\":1439:1661   */\n    tag_10:\n        /* \"#utility.yul\":1532:1536   */\n      0x00\n        /* \"#utility.yul\":1570:1572   */\n      0x20\n        /* \"#utility.yul\":1559:1568   */\n      dup3\n        /* \"#utility.yul\":1555:1573   */\n      add\n        /* \"#utility.yul\":1547:1573   */\n      swap1\n      pop\n        /* \"#utility.yul\":1583:1654   */\n      tag_46\n        /* \"#utility.yul\":1651:1652   */\n      0x00\n        /* \"#utility.yul\":1640:1649   */\n      dup4\n        /* \"#utility.yul\":1636:1653   */\n      add\n        /* \"#utility.yul\":1627:1633   */\n      dup5\n        /* \"#utility.yul\":1583:1654   */\n      tag_26\n      jump\t// in\n    tag_46:\n        /* \"#utility.yul\":1439:1661   */\n      swap3\n      swap2\n      pop\n      pop\n      jump\t// out\n        /* \"#utility.yul\":1667:2141   */\n    tag_13:\n        /* \"#utility.yul\":1735:1741   */\n      0x00\n        /* \"#utility.yul\":1743:1749   */\n      dup1\n        /* \"#utility.yul\":1792:1794   */\n      0x40\n        /* \"#utility.yul\":1780:1789   */\n      dup4\n        /* \"#utility.yul\":1771:1778   */\n      dup6\n        /* \"#utility.yul\":1767:1790   */\n      sub\n        /* \"#utility.yul\":1763:1795   */\n      slt\n        /* \"#utility.yul\":1760:1879   */\n      iszero\n      tag_48\n      jumpi\n        /* \"#utility.yul\":1798:1877   */\n      tag_49\n      tag_21\n      jump\t// in\n    tag_49:\n        /* \"#utility.yul\":1760:1879   */\n    tag_48:\n        /* \"#utility.yul\":1918:1919   */\n      0x00\n        /* \"#utility.yul\":1943:1996   */\n      tag_50\n        /* \"#utility.yul\":1988:1995   */\n      dup6\n        /* \"#utility.yul\":1979:1985   */\n      dup3\n        /* \"#utility.yul\":1968:1977   */\n      dup7\n        /* \"#utility.yul\":1964:1986   */\n      add\n        /* \"#utility.yul\":1943:1996   */\n      tag_25\n      jump\t// in\n    tag_50:\n        /* \"#utility.yul\":1933:1996   */\n      swap3\n      pop\n        /* \"#utility.yul\":1889:2006   */\n      pop\n        /* \"#utility.yul\":2045:2047   */\n      0x20\n        /* \"#utility.yul\":2071:2124   */\n      tag_51\n        /* \"#utility.yul\":2116:2123   */\n      dup6\n        /* \"#utility.yul\":2107:2113   */\n      dup3\n        /* \"#utility.yul\":2096:2105   */\n      dup7\n        /* \"#utility.yul\":2092:2114   */\n      add\n        /* \"#utility.yul\":2071:2124   */\n      tag_25\n      jump\t// in\n    tag_51:\n        /* \"#utility.yul\":2061:2124   */\n      swap2\n      pop\n        /* \"#utility.yul\":2016:2134   */\n      pop\n        /* \"#utility.yul\":1667:2141   */\n      swap3\n      pop\n      swap3\n      swap1\n      pop\n      jump\t// out\n\n    auxdata: 0xa2646970667358221220263c65e848f08cba82c159d0ca3f8c6234464a8c4f6dac722d84a6aa99e3c0c664736f6c63430008160033\n}\n",
				"bytecode": {
					"linkReferences": {},
					"object": "608060405234801561000f575f80fd5b506101e38061001d5f395ff3fe608060405234801561000f575f80fd5b5060043610610034575f3560e01c80630c826809146100385780636d5433e614610068575b5f80fd5b610052600480360381019061004d91906100f7565b610098565b60405161005f9190610156565b60405180910390f35b610082600480360381019061007d919061016f565b6100a0565b60405161008f9190610156565b60405180910390f35b5f9392505050565b5f80828411156100b2578390506100b6565b8290505b8091505092915050565b5f80fd5b5f819050919050565b6100d6816100c4565b81146100e0575f80fd5b50565b5f813590506100f1816100cd565b92915050565b5f805f6060848603121561010e5761010d6100c0565b5b5f61011b868287016100e3565b935050602061012c868287016100e3565b925050604061013d868287016100e3565b9150509250925092565b610150816100c4565b82525050565b5f6020820190506101695f830184610147565b92915050565b5f8060408385031215610185576101846100c0565b5b5f610192858286016100e3565b92505060206101a3858286016100e3565b915050925092905056fea2646970667358221220263c65e848f08cba82c159d0ca3f8c6234464a8c4f6dac722d84a6aa99e3c0c664736f6c63430008160033",
					"opcodes": "PUSH1 0x80 PUSH1 0x40 MSTORE CALLVALUE DUP1 ISZERO PUSH2 0xF JUMPI PUSH0 DUP1 REVERT JUMPDEST POP PUSH2 0x1E3 DUP1 PUSH2 0x1D PUSH0 CODECOPY PUSH0 RETURN INVALID PUSH1 0x80 PUSH1 0x40 MSTORE CALLVALUE DUP1 ISZERO PUSH2 0xF JUMPI PUSH0 DUP1 REVERT JUMPDEST POP PUSH1 0x4 CALLDATASIZE LT PUSH2 0x34 JUMPI PUSH0 CALLDATALOAD PUSH1 0xE0 SHR DUP1 PUSH4 0xC826809 EQ PUSH2 0x38 JUMPI DUP1 PUSH4 0x6D5433E6 EQ PUSH2 0x68 JUMPI JUMPDEST PUSH0 DUP1 REVERT JUMPDEST PUSH2 0x52 PUSH1 0x4 DUP1 CALLDATASIZE SUB DUP2 ADD SWAP1 PUSH2 0x4D SWAP2 SWAP1 PUSH2 0xF7 JUMP JUMPDEST PUSH2 0x98 JUMP JUMPDEST PUSH1 0x40 MLOAD PUSH2 0x5F SWAP2 SWAP1 PUSH2 0x156 JUMP JUMPDEST PUSH1 0x40 MLOAD DUP1 SWAP2 SUB SWAP1 RETURN JUMPDEST PUSH2 0x82 PUSH1 0x4 DUP1 CALLDATASIZE SUB DUP2 ADD SWAP1 PUSH2 0x7D SWAP2 SWAP1 PUSH2 0x16F JUMP JUMPDEST PUSH2 0xA0 JUMP JUMPDEST PUSH1 0x40 MLOAD PUSH2 0x8F SWAP2 SWAP1 PUSH2 0x156 JUMP JUMPDEST PUSH1 0x40 MLOAD DUP1 SWAP2 SUB SWAP1 RETURN JUMPDEST PUSH0 SWAP4 SWAP3 POP POP POP JUMP JUMPDEST PUSH0 DUP1 DUP3 DUP5 GT ISZERO PUSH2 0xB2 JUMPI DUP4 SWAP1 POP PUSH2 0xB6 JUMP JUMPDEST DUP3 SWAP1 POP JUMPDEST DUP1 SWAP2 POP POP SWAP3 SWAP2 POP POP JUMP JUMPDEST PUSH0 DUP1 REVERT JUMPDEST PUSH0 DUP2 SWAP1 POP SWAP2 SWAP1 POP JUMP JUMPDEST PUSH2 0xD6 DUP2 PUSH2 0xC4 JUMP JUMPDEST DUP2 EQ PUSH2 0xE0 JUMPI PUSH0 DUP1 REVERT JUMPDEST POP JUMP JUMPDEST PUSH0 DUP2 CALLDATALOAD SWAP1 POP PUSH2 0xF1 DUP2 PUSH2 0xCD JUMP JUMPDEST SWAP3 SWAP2 POP POP JUMP JUMPDEST PUSH0 DUP1 PUSH0 PUSH1 0x60 DUP5 DUP7 SUB SLT ISZERO PUSH2 0x10E JUMPI PUSH2 0x10D PUSH2 0xC0 JUMP JUMPDEST JUMPDEST PUSH0 PUSH2 0x11B DUP7 DUP3 DUP8 ADD PUSH2 0xE3 JUMP JUMPDEST SWAP4 POP POP PUSH1 0x20 PUSH2 0x12C DUP7 DUP3 DUP8 ADD PUSH2 0xE3 JUMP JUMPDEST SWAP3 POP POP PUSH1 0x40 PUSH2 0x13D DUP7 DUP3 DUP8 ADD PUSH2 0xE3 JUMP JUMPDEST SWAP2 POP POP SWAP3 POP SWAP3 POP SWAP3 JUMP JUMPDEST PUSH2 0x150 DUP2 PUSH2 0xC4 JUMP JUMPDEST DUP3 MSTORE POP POP JUMP JUMPDEST PUSH0 PUSH1 0x20 DUP3 ADD SWAP1 POP PUSH2 0x169 PUSH0 DUP4 ADD DUP5 PUSH2 0x147 JUMP JUMPDEST SWAP3 SWAP2 POP POP JUMP JUMPDEST PUSH0 DUP1 PUSH1 0x40 DUP4 DUP6 SUB SLT ISZERO PUSH2 0x185 JUMPI PUSH2 0x184 PUSH2 0xC0 JUMP JUMPDEST JUMPDEST PUSH0 PUSH2 0x192 DUP6 DUP3 DUP7 ADD PUSH2 0xE3 JUMP JUMPDEST SWAP3 POP POP PUSH1 0x20 PUSH2 0x1A3 DUP6 DUP3 DUP7 ADD PUSH2 0xE3 JUMP JUMPDEST SWAP2 POP POP SWAP3 POP SWAP3 SWAP1 POP JUMP INVALID LOG2 PUSH5 0x6970667358 0x22 SLT KECCAK256 0x26 EXTCODECOPY PUSH6 0xE848F08CBA82 0xC1 MSIZE 0xD0 0xCA EXTCODEHASH DUP13 PUSH3 0x34464A DUP13 0x4F PUSH14 0xAC722D84A6AA99E3C0C664736F6C PUSH4 0x43000816 STOP CALLER "
				},
				"gasEstimates": {
					"creation": {
						"codeDepositCost": "96600",
						"executionCost": "145",
						"totalCost": "96745"
					},
					"external": {
						"average(uint256,uint256,uint256)": "infinite",
						"max(uint256,uint256)": "infinite"
					}
				},
				"methodIdentifiers": {
					"average(uint256,uint256,uint256)": "0c826809",
					"max(uint256,uint256)": "6d5433e6"
				}
			},
			"storageLayout": {
				"storage": [],
				"types": null
			},
			"userdoc": {
				"kind": "user",
				"methods": {},
				"version": 1
			}
		}
	}
}