{
  "contractName": "HelloSolidity",
  "abi": [
    {
      "inputs": [
        {
          "internalType": "int256",
          "name": "x",
          "type": "int256"
        },
        {
          "internalType": "int256",
          "name": "y",
          "type": "int256"
        }
      ],
      "name": "add",
      "outputs": [
        {
          "internalType": "int256",
          "name": "",
          "type": "int256"
        }
      ],
      "stateMutability": "pure",
      "type": "function"
    },
    {
      "inputs": [
        {
          "internalType": "int256",
          "name": "x",
          "type": "int256"
        },
        {
          "internalType": "int256",
          "name": "y",
          "type": "int256"
        }
      ],
      "name": "subtract",
      "outputs": [
        {
          "internalType": "int256",
          "name": "",
          "type": "int256"
        }
      ],
      "stateMutability": "pure",
      "type": "function"
    },
    {
      "inputs": [
        {
          "internalType": "int256",
          "name": "x",
          "type": "int256"
        },
        {
          "internalType": "int256",
          "name": "y",
          "type": "int256"
        }
      ],
      "name": "multiply",
      "outputs": [
        {
          "internalType": "int256",
          "name": "",
          "type": "int256"
        }
      ],
      "stateMutability": "pure",
      "type": "function"
    },
    {
      "inputs": [
        {
          "internalType": "int256",
          "name": "x",
          "type": "int256"
        },
        {
          "internalType": "int256",
          "name": "y",
          "type": "int256"
        }
      ],
      "name": "divide",
      "outputs": [
        {
          "internalType": "int256",
          "name": "",
          "type": "int256"
        }
      ],
      "stateMutability": "pure",
      "type": "function"
    }
  ],
  "bytecode": "0x608060405234801561000f575f80fd5b506103ee8061001d5f395ff3fe608060405234801561000f575f80fd5b506004361061004a575f3560e01c80633c4308a81461004e578063a5f3c23b1461007e578063b93ea812146100ae578063f5984236146100de575b5f80fd5b61006860048036038101906100639190610199565b61010e565b60405161007591906101e6565b60405180910390f35b61009860048036038101906100939190610199565b610123565b6040516100a591906101e6565b60405180910390f35b6100c860048036038101906100c39190610199565b610138565b6040516100d591906101e6565b60405180910390f35b6100f860048036038101906100f39190610199565b61014d565b60405161010591906101e6565b60405180910390f35b5f818361011b919061022c565b905092915050565b5f818361013091906102a2565b905092915050565b5f818361014591906102e3565b905092915050565b5f818361015a9190610350565b905092915050565b5f80fd5b5f819050919050565b61017881610166565b8114610182575f80fd5b50565b5f813590506101938161016f565b92915050565b5f80604083850312156101af576101ae610162565b5b5f6101bc85828601610185565b92505060206101cd85828601610185565b9150509250929050565b6101e081610166565b82525050565b5f6020820190506101f95f8301846101d7565b92915050565b7f4e487b71000000000000000000000000000000000000000000000000000000005f52601160045260245ffd5b5f61023682610166565b915061024183610166565b925082820261024f81610166565b91507f800000000000000000000000000000000000000000000000000000000000000084145f84121615610286576102856101ff565b5b828205841483151761029b5761029a6101ff565b5b5092915050565b5f6102ac82610166565b91506102b783610166565b92508282019050828112155f8312168382125f8412151617156102dd576102dc6101ff565b5b92915050565b5f6102ed82610166565b91506102f883610166565b925082820390508181125f8412168282135f85121516171561031d5761031c6101ff565b5b92915050565b7f4e487b71000000000000000000000000000000000000000000000000000000005f52601260045260245ffd5b5f61035a82610166565b915061036583610166565b92508261037557610374610323565b5b60015f0383147f8000000000000000000000000000000000000000000000000000000000000000831416156103ad576103ac6101ff565b5b82820590509291505056fea26469706673582212203d1d3c08dfa2698d7dbfd0bece5e7c6347fbfb8adacbc69794d48aaa1841afda64736f6c63430008150033",
  "immutableReferences": {},
  "source": "// SPDX-License-Identifier: MIT\npragma solidity >=0.4.22 <0.9.0; // pragma  >=  compiler  0.4.22  0.9.9  \n\ncontract HelloSolidity {\n  function add(int x, int y)  public pure returns (int) {\n    return x + y; \n  }\n  function subtract(int x, int y)  public pure returns (int) {\n    return x - y; \n  }\n  function multiply(int x, int y)  public pure returns (int) {\n    return x * y; \n  }\n  function divide(int x, int y)  public pure returns (int) {\n    return x / y; \n  }\n}",
  "sourcePath": "C:\\Work\\HelloSolidity\\contracts\\HelloSolidity.sol",
  "compiler": {
    "name": "solc",
    "version": "0.8.21+commit.d9974bed.Emscripten.clang"
  },
  "schemaVersion": "3.4.16",
  "updatedAt": "2023-11-07T04:20:27.409Z",
  "devdoc": {
    "kind": "dev",
    "methods": {},
    "version": 1
  },
  "userdoc": {
    "kind": "user",
    "methods": {},
    "version": 1
  }
}