{
  "contractName": "SimpleMath",
  "abi": [
    {
      "inputs": [
        {
          "internalType": "uint256",
          "name": "a",
          "type": "uint256"
        },
        {
          "internalType": "uint256",
          "name": "b",
          "type": "uint256"
        }
      ],
      "name": "max",
      "outputs": [
        {
          "internalType": "uint256",
          "name": "",
          "type": "uint256"
        }
      ],
      "stateMutability": "pure",
      "type": "function",
      "constant": true
    },
    {
      "inputs": [
        {
          "internalType": "uint256",
          "name": "a",
          "type": "uint256"
        },
        {
          "internalType": "uint256",
          "name": "b",
          "type": "uint256"
        },
        {
          "internalType": "uint256",
          "name": "c",
          "type": "uint256"
        }
      ],
      "name": "average",
      "outputs": [
        {
          "internalType": "uint256",
          "name": "",
          "type": "uint256"
        }
      ],
      "stateMutability": "pure",
      "type": "function",
      "constant": true
    }
  ],
  "bytecode": "0x608060405234801561000f575f80fd5b506102ca8061001d5f395ff3fe608060405234801561000f575f80fd5b5060043610610034575f3560e01c80630c826809146100385780636d5433e614610068575b5f80fd5b610052600480360381019061004d9190610121565b610098565b60405161005f9190610180565b60405180910390f35b610082600480360381019061007d9190610199565b6100ca565b60405161008f9190610180565b60405180910390f35b5f8060038385876100a99190610204565b6100b39190610204565b6100bd9190610264565b9050809150509392505050565b5f80828411156100dc578390506100e0565b8290505b8091505092915050565b5f80fd5b5f819050919050565b610100816100ee565b811461010a575f80fd5b50565b5f8135905061011b816100f7565b92915050565b5f805f60608486031215610138576101376100ea565b5b5f6101458682870161010d565b93505060206101568682870161010d565b92505060406101678682870161010d565b9150509250925092565b61017a816100ee565b82525050565b5f6020820190506101935f830184610171565b92915050565b5f80604083850312156101af576101ae6100ea565b5b5f6101bc8582860161010d565b92505060206101cd8582860161010d565b9150509250929050565b7f4e487b71000000000000000000000000000000000000000000000000000000005f52601160045260245ffd5b5f61020e826100ee565b9150610219836100ee565b9250828201905080821115610231576102306101d7565b5b92915050565b7f4e487b71000000000000000000000000000000000000000000000000000000005f52601260045260245ffd5b5f61026e826100ee565b9150610279836100ee565b92508261028957610288610237565b5b82820490509291505056fea26469706673582212200c00d510f75c78451b252062f3ea0dd3e82c4dc4ffde58bbf3015076dfc6795064736f6c63430008150033",
  "immutableReferences": {},
  "source": "// SPDX-License-Identifier: MIT\npragma solidity >=0.4.22 <0.9.0;\n\ncontract SimpleMath {\n  \n function max(uint a , uint b) public pure returns (uint){\n  uint result;\n  if(a > b)\n  {\n    result =a;\n  }\n  else{\n    result = b;\n  }\n  return result;\n }\n\n function average(uint a, uint b, uint c) public pure returns (uint){\n  uint Average;\n  Average = (a + b + c) / 3;\n  return Average;\n }\n}\n",
  "sourcePath": "C:\\Work\\HelloSolidity\\contracts\\SimpleMath.sol",
  "compiler": {
    "name": "solc",
    "version": "0.8.21+commit.d9974bed.Emscripten.clang"
  },
  "schemaVersion": "3.4.16",
  "updatedAt": "2023-11-17T15:33:55.212Z",
  "networkType": "ethereum",
  "devdoc": {
    "kind": "dev",
    "methods": {},
    "version": 1
  },
  "userdoc": {
    "kind": "user",
    "methods": {},
    "version": 1
  }
}