{
  "contractName": "SimpleBank",
  "abi": [
    {
      "inputs": [],
      "stateMutability": "nonpayable",
      "type": "constructor"
    },
    {
      "anonymous": false,
      "inputs": [
        {
          "indexed": false,
          "internalType": "uint256",
          "name": "amount",
          "type": "uint256"
        },
        {
          "indexed": false,
          "internalType": "uint256",
          "name": "timestamp",
          "type": "uint256"
        }
      ],
      "name": "ChangeMaxWithDrawLimit",
      "type": "event"
    },
    {
      "anonymous": false,
      "inputs": [
        {
          "indexed": false,
          "internalType": "address",
          "name": "depositor",
          "type": "address"
        },
        {
          "indexed": false,
          "internalType": "uint256",
          "name": "amount",
          "type": "uint256"
        },
        {
          "indexed": false,
          "internalType": "uint256",
          "name": "timestamp",
          "type": "uint256"
        }
      ],
      "name": "Deposited",
      "type": "event"
    },
    {
      "anonymous": false,
      "inputs": [
        {
          "indexed": false,
          "internalType": "address",
          "name": "withdrawer",
          "type": "address"
        },
        {
          "indexed": false,
          "internalType": "uint256",
          "name": "amount",
          "type": "uint256"
        },
        {
          "indexed": false,
          "internalType": "uint256",
          "name": "timestamp",
          "type": "uint256"
        }
      ],
      "name": "Withdrawn",
      "type": "event"
    },
    {
      "inputs": [],
      "name": "owner",
      "outputs": [
        {
          "internalType": "address",
          "name": "",
          "type": "address"
        }
      ],
      "stateMutability": "view",
      "type": "function"
    },
    {
      "inputs": [
        {
          "internalType": "uint256",
          "name": "amount",
          "type": "uint256"
        }
      ],
      "name": "setMaximumLimit",
      "outputs": [],
      "stateMutability": "nonpayable",
      "type": "function"
    },
    {
      "inputs": [
        {
          "internalType": "string",
          "name": "name",
          "type": "string"
        }
      ],
      "name": "deposit",
      "outputs": [],
      "stateMutability": "payable",
      "type": "function"
    },
    {
      "inputs": [
        {
          "internalType": "uint256",
          "name": "amount",
          "type": "uint256"
        }
      ],
      "name": "withdraw",
      "outputs": [],
      "stateMutability": "nonpayable",
      "type": "function"
    },
    {
      "inputs": [],
      "name": "getBalance",
      "outputs": [
        {
          "internalType": "uint256",
          "name": "",
          "type": "uint256"
        }
      ],
      "stateMutability": "view",
      "type": "function"
    }
  ],
  "bytecode": "0x608060405234801561000f575f80fd5b503360015f6101000a81548173ffffffffffffffffffffffffffffffffffffffff021916908373ffffffffffffffffffffffffffffffffffffffff160217905550671bc16d674ec80000600281905550610e288061006c5f395ff3fe608060405260043610610049575f3560e01c806312065fe01461004d5780632e1a7d4d146100775780638da5cb5b1461009f578063a26e1186146100c9578063b1bad4da146100e5575b5f80fd5b348015610058575f80fd5b5061006161010d565b60405161006e91906105f1565b60405180910390f35b348015610082575f80fd5b5061009d60048036038101906100989190610645565b610153565b005b3480156100aa575f80fd5b506100b361029c565b6040516100c091906106af565b60405180910390f35b6100e360048036038101906100de9190610804565b6102c1565b005b3480156100f0575f80fd5b5061010b60048036038101906101069190610645565b6104c5565b005b5f805f3373ffffffffffffffffffffffffffffffffffffffff1673ffffffffffffffffffffffffffffffffffffffff1681526020019081526020015f2060010154905090565b600254811115610198576040517f08c379a000000000000000000000000000000000000000000000000000000000815260040161018f906108a5565b60405180910390fd5b5f803373ffffffffffffffffffffffffffffffffffffffff1673ffffffffffffffffffffffffffffffffffffffff1681526020019081526020015f206001015481111561021a576040517f08c379a00000000000000000000000000000000000000000000000000000000081526004016102119061090d565b60405180910390fd5b3373ffffffffffffffffffffffffffffffffffffffff166108fc8290811502906040515f60405180830381858888f1935050505015801561025d573d5f803e3d5ffd5b507f92ccf450a286a957af52509bc1c9939d1a6a481783e142e41e2499f0bb66ebc63382426040516102919392919061092b565b60405180910390a150565b60015f9054906101000a900473ffffffffffffffffffffffffffffffffffffffff1681565b5f3411610303576040517f08c379a00000000000000000000000000000000000000000000000000000000081526004016102fa906109aa565b60405180910390fd5b5f805f3373ffffffffffffffffffffffffffffffffffffffff1673ffffffffffffffffffffffffffffffffffffffff1681526020019081526020015f206040518060400160405290815f8201805461035a906109f5565b80601f0160208091040260200160405190810160405280929190818152602001828054610386906109f5565b80156103d15780601f106103a8576101008083540402835291602001916103d1565b820191905f5260205f20905b8154815290600101906020018083116103b457829003601f168201915b5050505050815260200160018201548152505090505f816020015111156104105734816020018181516104049190610a52565b91508181525050610486565b6040518060400160405280838152602001348152509050805f803373ffffffffffffffffffffffffffffffffffffffff1673ffffffffffffffffffffffffffffffffffffffff1681526020019081526020015f205f820151815f0190816104779190610c2c565b50602082015181600101559050505b7f73a19dd210f1a7f902193214c0ee91dd35ee5b4d920cba8d519eca65a7b488ca3334426040516104b99392919061092b565b60405180910390a15050565b60015f9054906101000a900473ffffffffffffffffffffffffffffffffffffffff1673ffffffffffffffffffffffffffffffffffffffff163373ffffffffffffffffffffffffffffffffffffffff1614610554576040517f08c379a000000000000000000000000000000000000000000000000000000000815260040161054b90610d45565b60405180910390fd5b5f8111610596576040517f08c379a000000000000000000000000000000000000000000000000000000000815260040161058d90610dad565b60405180910390fd5b806002819055507fb2ee4bd0f0e9cec5d322d441d069ce2f3955511d270b6cae09896a63afebbbd881426040516105ce929190610dcb565b60405180910390a150565b5f819050919050565b6105eb816105d9565b82525050565b5f6020820190506106045f8301846105e2565b92915050565b5f604051905090565b5f80fd5b5f80fd5b610624816105d9565b811461062e575f80fd5b50565b5f8135905061063f8161061b565b92915050565b5f6020828403121561065a57610659610613565b5b5f61066784828501610631565b91505092915050565b5f73ffffffffffffffffffffffffffffffffffffffff82169050919050565b5f61069982610670565b9050919050565b6106a98161068f565b82525050565b5f6020820190506106c25f8301846106a0565b92915050565b5f80fd5b5f80fd5b5f601f19601f8301169050919050565b7f4e487b71000000000000000000000000000000000000000000000000000000005f52604160045260245ffd5b610716826106d0565b810181811067ffffffffffffffff82111715610735576107346106e0565b5b80604052505050565b5f61074761060a565b9050610753828261070d565b919050565b5f67ffffffffffffffff821115610772576107716106e0565b5b61077b826106d0565b9050602081019050919050565b828183375f83830152505050565b5f6107a86107a384610758565b61073e565b9050828152602081018484840111156107c4576107c36106cc565b5b6107cf848285610788565b509392505050565b5f82601f8301126107eb576107ea6106c8565b5b81356107fb848260208601610796565b91505092915050565b5f6020828403121561081957610818610613565b5b5f82013567ffffffffffffffff81111561083657610835610617565b5b610842848285016107d7565b91505092915050565b5f82825260208201905092915050565b7f457863656564206d6178696d756d207769746864726177206c696d69740000005f82015250565b5f61088f601d8361084b565b915061089a8261085b565b602082019050919050565b5f6020820190508181035f8301526108bc81610883565b9050919050565b7f496e73756666696369656e742062616c616e63650000000000000000000000005f82015250565b5f6108f760148361084b565b9150610902826108c3565b602082019050919050565b5f6020820190508181035f830152610924816108eb565b9050919050565b5f60608201905061093e5f8301866106a0565b61094b60208301856105e2565b61095860408301846105e2565b949350505050565b7f5a65726f2042616c616e6365206e6f7420616c6c6f77656400000000000000005f82015250565b5f61099460188361084b565b915061099f82610960565b602082019050919050565b5f6020820190508181035f8301526109c181610988565b9050919050565b7f4e487b71000000000000000000000000000000000000000000000000000000005f52602260045260245ffd5b5f6002820490506001821680610a0c57607f821691505b602082108103610a1f57610a1e6109c8565b5b50919050565b7f4e487b71000000000000000000000000000000000000000000000000000000005f52601160045260245ffd5b5f610a5c826105d9565b9150610a67836105d9565b9250828201905080821115610a7f57610a7e610a25565b5b92915050565b5f81519050919050565b5f819050815f5260205f209050919050565b5f6020601f8301049050919050565b5f82821b905092915050565b5f60088302610aeb7fffffffffffffffffffffffffffffffffffffffffffffffffffffffffffffffff82610ab0565b610af58683610ab0565b95508019841693508086168417925050509392505050565b5f819050919050565b5f610b30610b2b610b26846105d9565b610b0d565b6105d9565b9050919050565b5f819050919050565b610b4983610b16565b610b5d610b5582610b37565b848454610abc565b825550505050565b5f90565b610b71610b65565b610b7c818484610b40565b505050565b5b81811015610b9f57610b945f82610b69565b600181019050610b82565b5050565b601f821115610be457610bb581610a8f565b610bbe84610aa1565b81016020851015610bcd578190505b610be1610bd985610aa1565b830182610b81565b50505b505050565b5f82821c905092915050565b5f610c045f1984600802610be9565b1980831691505092915050565b5f610c1c8383610bf5565b9150826002028217905092915050565b610c3582610a85565b67ffffffffffffffff811115610c4e57610c4d6106e0565b5b610c5882546109f5565b610c63828285610ba3565b5f60209050601f831160018114610c94575f8415610c82578287015190505b610c8c8582610c11565b865550610cf3565b601f198416610ca286610a8f565b5f5b82811015610cc957848901518255600182019150602085019450602081019050610ca4565b86831015610ce65784890151610ce2601f891682610bf5565b8355505b6001600288020188555050505b505050505050565b7f5065726d6973696f6e2044656e696e64000000000000000000000000000000005f82015250565b5f610d2f60108361084b565b9150610d3a82610cfb565b602082019050919050565b5f6020820190508181035f830152610d5c81610d23565b9050919050565b7f4d6178696d756d206c696d69742063616e206e6f74206265207a65726f0000005f82015250565b5f610d97601d8361084b565b9150610da282610d63565b602082019050919050565b5f6020820190508181035f830152610dc481610d8b565b9050919050565b5f604082019050610dde5f8301856105e2565b610deb60208301846105e2565b939250505056fea264697066735822122016cc28e209aee54463e2b39c2abfd1b063023699ec354e8c9caac508f2df4ffe64736f6c63430008150033",
  "immutableReferences": {},
  "source": "// SPDX-License-Identifier: MIT\npragma solidity >=0.4.22 <0.9.0;\n\ncontract SimpleBank {\n    struct Record {\n        string name;\n        uint balance;\n    }\n\n    // mapping (key => value) name;  1  value  struct\n    mapping(address => Record) balances;\n    address public owner; // \n    uint constant DEFALUT_MAX_WITHDRAW_AMOUNT = 2 ether; //default  2 ether\n    uint maxWithdrawAmount;\n\n    //event    event \n    event Deposited(address depositor, uint amount, uint timestamp);\n    event Withdrawn(address withdrawer, uint amount, uint timestamp);\n    event ChangeMaxWithDrawLimit(uint amount, uint timestamp); // timestamp \n\n    constructor() {\n        owner = msg.sender;\n        maxWithdrawAmount = DEFALUT_MAX_WITHDRAW_AMOUNT;\n    }\n\n    modifier onlyOwner { //  require \n        require(msg.sender == owner, \"Permision Denind\");\n        _; //  modifier\n    }\n\n\n    function setMaximumLimit(uint amount)  public onlyOwner{\n        require(amount > 0 , \"Maximum limit can not be zero\");\n        maxWithdrawAmount = amount;\n        //emit  event \n        emit ChangeMaxWithDrawLimit(amount, block.timestamp);\n    }\n\n    function deposit(string memory name) external payable {\n        require(msg.value > 0, \"Zero Balance not allowed\");\n        Record memory record = balances[msg.sender];\n\n        if (record.balance > 0) {\n            // old deposit \n            record.balance += msg.value;\n        } else {\n            // first time deposit \n            record = Record(name, msg.value);\n            balances[msg.sender] = record;\n        }\n        //emit  event \n        emit Deposited(msg.sender, msg.value, block.timestamp); //  event  Deposited sender  address value  uint timestamp  uint\n    }\n\n    function withdraw(uint amount) external {\n        require(amount <= maxWithdrawAmount, \"Exceed maximum withdraw limit\");\n        require(amount <= balances[msg.sender].balance, \"Insufficient balance\"); //  require \n        payable(msg.sender).transfer(amount);\n        emit Withdrawn(msg.sender,amount,block.timestamp);\n    }\n\n    function getBalance() external view returns (uint) {\n        return balances[msg.sender].balance; //balance  table\n    }\n}\n",
  "sourcePath": "C:\\Work\\HelloSolidity\\contracts\\SimpleBank.sol",
  "compiler": {
    "name": "solc",
    "version": "0.8.21+commit.d9974bed.Emscripten.clang"
  },
  "schemaVersion": "3.4.16",
  "updatedAt": "2023-11-17T15:33:52.304Z",
  "devdoc": {
    "kind": "dev",
    "methods": {},
    "version": 1
  },
  "userdoc": {
    "kind": "user",
    "methods": {},
    "version": 1
  }
}