{
  "contractName": "Simple",
  "abi": [
    {
      "inputs": [],
      "stateMutability": "nonpayable",
      "type": "constructor"
    },
    {
      "inputs": [],
      "name": "Owner",
      "outputs": [
        {
          "internalType": "address",
          "name": "",
          "type": "address"
        }
      ],
      "stateMutability": "view",
      "type": "function"
    },
    {
      "inputs": [],
      "name": "b2",
      "outputs": [
        {
          "internalType": "bool",
          "name": "",
          "type": "bool"
        }
      ],
      "stateMutability": "view",
      "type": "function"
    },
    {
      "inputs": [],
      "name": "var2",
      "outputs": [
        {
          "internalType": "int256",
          "name": "",
          "type": "int256"
        }
      ],
      "stateMutability": "view",
      "type": "function"
    },
    {
      "inputs": [],
      "name": "getValue",
      "outputs": [
        {
          "internalType": "int256",
          "name": "",
          "type": "int256"
        }
      ],
      "stateMutability": "view",
      "type": "function"
    },
    {
      "inputs": [
        {
          "internalType": "int256",
          "name": "newVal1",
          "type": "int256"
        },
        {
          "internalType": "int256",
          "name": "newVal2",
          "type": "int256"
        }
      ],
      "name": "setValue",
      "outputs": [],
      "stateMutability": "nonpayable",
      "type": "function"
    },
    {
      "inputs": [],
      "name": "getMultiValue",
      "outputs": [
        {
          "internalType": "address",
          "name": "",
          "type": "address"
        },
        {
          "internalType": "uint256",
          "name": "",
          "type": "uint256"
        }
      ],
      "stateMutability": "view",
      "type": "function"
    }
  ],
  "bytecode": "0x60806040526001600260016101000a81548160ff021916908315150217905550601460035561753060045567d02ab486cedc0000600555348015610041575f80fd5b5042600681905550336002806101000a81548173ffffffffffffffffffffffffffffffffffffffff021916908373ffffffffffffffffffffffffffffffffffffffff160217905550610338806100965f395ff3fe608060405234801561000f575f80fd5b5060043610610060575f3560e01c80630add6ef2146100645780631ccb227e1461008257806320965255146100a1578063507aff57146100bf578063b4a99a4e146100dd578063c808c16d146100fb575b5f80fd5b61006c610117565b60405161007991906101b5565b60405180910390f35b61008a61012a565b604051610098929190610225565b60405180910390f35b6100a9610158565b6040516100b69190610264565b60405180910390f35b6100c7610160565b6040516100d49190610264565b60405180910390f35b6100e5610166565b6040516100f2919061027d565b60405180910390f35b610115600480360381019061011091906102c4565b61018a565b005b600260019054906101000a900460ff1681565b5f8060028054906101000a900473ffffffffffffffffffffffffffffffffffffffff16600354915091509091565b5f8054905090565b60015481565b60028054906101000a900473ffffffffffffffffffffffffffffffffffffffff1681565b815f81905550806001819055505050565b5f8115159050919050565b6101af8161019b565b82525050565b5f6020820190506101c85f8301846101a6565b92915050565b5f73ffffffffffffffffffffffffffffffffffffffff82169050919050565b5f6101f7826101ce565b9050919050565b610207816101ed565b82525050565b5f819050919050565b61021f8161020d565b82525050565b5f6040820190506102385f8301856101fe565b6102456020830184610216565b9392505050565b5f819050919050565b61025e8161024c565b82525050565b5f6020820190506102775f830184610255565b92915050565b5f6020820190506102905f8301846101fe565b92915050565b5f80fd5b6102a38161024c565b81146102ad575f80fd5b50565b5f813590506102be8161029a565b92915050565b5f80604083850312156102da576102d9610296565b5b5f6102e7858286016102b0565b92505060206102f8858286016102b0565b915050925092905056fea2646970667358221220f44704b2217f6bffaff0eb6a2929424c1877408a67d2c00c931f713ebff7de2f64736f6c63430008150033",
  "immutableReferences": {},
  "source": "// SPDX-License-Identifier: MIT\npragma solidity >=0.4.22 <0.9.0;\n\ncontract Simple {\n\n  int var1; //private\n  int public var2; // public\n  bool b1; //private\n  bool public b2 = true; //public\n  address public Owner;\n  uint t1 = 20 seconds;\n  uint t2 = 30000; // millisec\n  uint amount = 15 ether; //15 * 10^18  uint\n  uint starttime;\n  constructor()  {\n    starttime = block.timestamp;\n    Owner = msg.sender;\n  }\n\n  function getValue() public view returns (int) { // local call\n    return var1;\n  }\n\n  function setValue(int newVal1,int newVal2) public { // transaction call\n   var1 = newVal1;\n   var2 = newVal2; \n  }\n\n  function getMultiValue() public view returns(address,uint) {\n    return (Owner,t1);\n  }\n  // function buy () public payable {} \n  // {\n  //   msg.value < 5 ether\n  //   msg.sender;\n  // }\n}\n",
  "sourcePath": "C:\\Work\\HelloSolidity\\contracts\\Simple.sol",
  "compiler": {
    "name": "solc",
    "version": "0.8.21+commit.d9974bed.Emscripten.clang"
  },
  "schemaVersion": "3.4.16",
  "updatedAt": "2023-11-13T04:29:22.677Z",
  "devdoc": {
    "kind": "dev",
    "methods": {},
    "version": 1
  },
  "userdoc": {
    "kind": "user",
    "methods": {},
    "version": 1
  }
}