{
  "contractName": "SimpleArray",
  "abi": [
    {
      "inputs": [
        {
          "internalType": "uint256[]",
          "name": "arr",
          "type": "uint256[]"
        }
      ],
      "name": "average",
      "outputs": [
        {
          "internalType": "uint256",
          "name": "",
          "type": "uint256"
        }
      ],
      "stateMutability": "pure",
      "type": "function"
    }
  ],
  "bytecode": "0x608060405234801561000f575f80fd5b506104288061001d5f395ff3fe608060405234801561000f575f80fd5b5060043610610029575f3560e01c8063a8606b821461002d575b5f80fd5b61004760048036038101906100429190610252565b61005d565b60405161005491906102a8565b60405180910390f35b5f805f90505f5b83518110156100a8578381815181106100805761007f6102c1565b5b602002602001015182610093919061031b565b915080806100a09061034e565b915050610064565b508251816100b691906103c2565b915050919050565b5f604051905090565b5f80fd5b5f80fd5b5f80fd5b5f601f19601f8301169050919050565b7f4e487b71000000000000000000000000000000000000000000000000000000005f52604160045260245ffd5b610119826100d3565b810181811067ffffffffffffffff82111715610138576101376100e3565b5b80604052505050565b5f61014a6100be565b90506101568282610110565b919050565b5f67ffffffffffffffff821115610175576101746100e3565b5b602082029050602081019050919050565b5f80fd5b5f819050919050565b61019c8161018a565b81146101a6575f80fd5b50565b5f813590506101b781610193565b92915050565b5f6101cf6101ca8461015b565b610141565b905080838252602082019050602084028301858111156101f2576101f1610186565b5b835b8181101561021b578061020788826101a9565b8452602084019350506020810190506101f4565b5050509392505050565b5f82601f830112610239576102386100cf565b5b81356102498482602086016101bd565b91505092915050565b5f60208284031215610267576102666100c7565b5b5f82013567ffffffffffffffff811115610284576102836100cb565b5b61029084828501610225565b91505092915050565b6102a28161018a565b82525050565b5f6020820190506102bb5f830184610299565b92915050565b7f4e487b71000000000000000000000000000000000000000000000000000000005f52603260045260245ffd5b7f4e487b71000000000000000000000000000000000000000000000000000000005f52601160045260245ffd5b5f6103258261018a565b91506103308361018a565b9250828201905080821115610348576103476102ee565b5b92915050565b5f6103588261018a565b91507fffffffffffffffffffffffffffffffffffffffffffffffffffffffffffffffff820361038a576103896102ee565b5b600182019050919050565b7f4e487b71000000000000000000000000000000000000000000000000000000005f52601260045260245ffd5b5f6103cc8261018a565b91506103d78361018a565b9250826103e7576103e6610395565b5b82820490509291505056fea26469706673582212200634ac523d0cf10e077486a384e3d5294c9b9e7b42272630b8b902eba96f4ea564736f6c63430008150033",
  "immutableReferences": {},
  "source": "// SPDX-License-Identifier: MIT\npragma solidity >=0.4.22 <0.9.0;\n\ncontract SimpleArray {\n  function average (uint[] memory arr ) public pure returns (uint){\n    uint sum = 0;\n    for (uint i =0; i < arr.length; i++)\n    {\n      sum  += arr[i];\n    }\n    return sum / arr.length;\n  }\n}\n",
  "sourcePath": "C:\\Work\\HelloSolidity\\contracts\\SimpleArray.sol",
  "compiler": {
    "name": "solc",
    "version": "0.8.21+commit.d9974bed.Emscripten.clang"
  },
  "schemaVersion": "3.4.16",
  "updatedAt": "2023-11-06T04:02:22.365Z",
  "devdoc": {
    "kind": "dev",
    "methods": {},
    "version": 1
  },
  "userdoc": {
    "kind": "user",
    "methods": {},
    "version": 1
  }
}