{
  "contractName": "Vote",
  "abi": [
    {
      "anonymous": false,
      "inputs": [
        {
          "indexed": false,
          "internalType": "address",
          "name": "newcandidate",
          "type": "address"
        },
        {
          "indexed": false,
          "internalType": "uint256",
          "name": "timestamp",
          "type": "uint256"
        }
      ],
      "name": "NewcandidateProposed",
      "type": "event"
    },
    {
      "anonymous": false,
      "inputs": [
        {
          "indexed": false,
          "internalType": "address",
          "name": "voter",
          "type": "address"
        },
        {
          "indexed": false,
          "internalType": "uint256",
          "name": "timestamp",
          "type": "uint256"
        }
      ],
      "name": "voted",
      "type": "event"
    },
    {
      "inputs": [
        {
          "internalType": "uint256",
          "name": "",
          "type": "uint256"
        }
      ],
      "name": "candidates",
      "outputs": [
        {
          "internalType": "string",
          "name": "name",
          "type": "string"
        },
        {
          "internalType": "uint256",
          "name": "votecount",
          "type": "uint256"
        }
      ],
      "stateMutability": "view",
      "type": "function"
    },
    {
      "inputs": [
        {
          "internalType": "address",
          "name": "",
          "type": "address"
        }
      ],
      "name": "hasvote",
      "outputs": [
        {
          "internalType": "bool",
          "name": "",
          "type": "bool"
        }
      ],
      "stateMutability": "view",
      "type": "function"
    },
    {
      "inputs": [
        {
          "internalType": "string",
          "name": "name",
          "type": "string"
        }
      ],
      "name": "proposecandidate",
      "outputs": [],
      "stateMutability": "nonpayable",
      "type": "function"
    },
    {
      "inputs": [
        {
          "internalType": "uint256",
          "name": "candidateindex",
          "type": "uint256"
        }
      ],
      "name": "vote",
      "outputs": [],
      "stateMutability": "nonpayable",
      "type": "function"
    },
    {
      "inputs": [],
      "name": "getwinner",
      "outputs": [
        {
          "internalType": "string",
          "name": "name",
          "type": "string"
        }
      ],
      "stateMutability": "view",
      "type": "function"
    }
  ],
  "bytecode": "0x608060405234801561000f575f80fd5b50610d648061001d5f395ff3fe608060405234801561000f575f80fd5b5060043610610055575f3560e01c80630121b93f146100595780633477ee2e14610075578063a3dfb329146100a6578063e6293cf0146100d6578063e7bb7cbe146100f2575b5f80fd5b610073600480360381019061006e9190610581565b610110565b005b61008f600480360381019061008a9190610581565b6102ac565b60405161009d929190610645565b60405180910390f35b6100c060048036038101906100bb91906106cd565b610360565b6040516100cd9190610712565b60405180910390f35b6100f060048036038101906100eb9190610857565b61037d565b005b6100fa610415565b604051610107919061089e565b60405180910390f35b5f151560015f3373ffffffffffffffffffffffffffffffffffffffff1673ffffffffffffffffffffffffffffffffffffffff1681526020019081526020015f205f9054906101000a900460ff1615151461019f576040517f08c379a000000000000000000000000000000000000000000000000000000000815260040161019690610908565b60405180910390fd5b5f8054905081106101e5576040517f08c379a00000000000000000000000000000000000000000000000000000000081526004016101dc90610970565b60405180910390fd5b6001805f3373ffffffffffffffffffffffffffffffffffffffff1673ffffffffffffffffffffffffffffffffffffffff1681526020019081526020015f205f6101000a81548160ff0219169083151502179055505f818154811061024c5761024b61098e565b5b905f5260205f2090600202016001015f81548092919061026b906109e8565b91905055507fc591aa98f3e7d1c3a106f4653e39eba694fcc03ba3c686dfbefbf82f6b06bcea33426040516102a1929190610a3e565b60405180910390a150565b5f81815481106102ba575f80fd5b905f5260205f2090600202015f91509050805f0180546102d990610a92565b80601f016020809104026020016040519081016040528092919081815260200182805461030590610a92565b80156103505780601f1061032757610100808354040283529160200191610350565b820191905f5260205f20905b81548152906001019060200180831161033357829003601f168201915b5050505050908060010154905082565b6001602052805f5260405f205f915054906101000a900460ff1681565b5f60405180604001604052808381526020015f815250908060018154018082558091505060019003905f5260205f2090600202015f909190919091505f820151815f0190816103cc9190610c5f565b506020820151816001015550507f8b83e76785def4a83e97694f773b79e48bc478b41ed4ba5780c6d44684212b14334260405161040a929190610a3e565b60405180910390a150565b60605f805f5b5f8054905081101561048d57815f828154811061043b5761043a61098e565b5b905f5260205f20906002020160010154111561047a575f81815481106104645761046361098e565b5b905f5260205f2090600202016001015491508092505b8080610485906109e8565b91505061041b565b505f82815481106104a1576104a061098e565b5b905f5260205f2090600202015f0180546104ba90610a92565b80601f01602080910402602001604051908101604052809291908181526020018280546104e690610a92565b80156105315780601f1061050857610100808354040283529160200191610531565b820191905f5260205f20905b81548152906001019060200180831161051457829003601f168201915b50505050509250505090565b5f604051905090565b5f80fd5b5f80fd5b5f819050919050565b6105608161054e565b811461056a575f80fd5b50565b5f8135905061057b81610557565b92915050565b5f6020828403121561059657610595610546565b5b5f6105a38482850161056d565b91505092915050565b5f81519050919050565b5f82825260208201905092915050565b5f5b838110156105e35780820151818401526020810190506105c8565b5f8484015250505050565b5f601f19601f8301169050919050565b5f610608826105ac565b61061281856105b6565b93506106228185602086016105c6565b61062b816105ee565b840191505092915050565b61063f8161054e565b82525050565b5f6040820190508181035f83015261065d81856105fe565b905061066c6020830184610636565b9392505050565b5f73ffffffffffffffffffffffffffffffffffffffff82169050919050565b5f61069c82610673565b9050919050565b6106ac81610692565b81146106b6575f80fd5b50565b5f813590506106c7816106a3565b92915050565b5f602082840312156106e2576106e1610546565b5b5f6106ef848285016106b9565b91505092915050565b5f8115159050919050565b61070c816106f8565b82525050565b5f6020820190506107255f830184610703565b92915050565b5f80fd5b5f80fd5b7f4e487b71000000000000000000000000000000000000000000000000000000005f52604160045260245ffd5b610769826105ee565b810181811067ffffffffffffffff8211171561078857610787610733565b5b80604052505050565b5f61079a61053d565b90506107a68282610760565b919050565b5f67ffffffffffffffff8211156107c5576107c4610733565b5b6107ce826105ee565b9050602081019050919050565b828183375f83830152505050565b5f6107fb6107f6846107ab565b610791565b9050828152602081018484840111156108175761081661072f565b5b6108228482856107db565b509392505050565b5f82601f83011261083e5761083d61072b565b5b813561084e8482602086016107e9565b91505092915050565b5f6020828403121561086c5761086b610546565b5b5f82013567ffffffffffffffff8111156108895761088861054a565b5b6108958482850161082a565b91505092915050565b5f6020820190508181035f8301526108b681846105fe565b905092915050565b7f596f75204861766520416c726561647920566f746500000000000000000000005f82015250565b5f6108f26015836105b6565b91506108fd826108be565b602082019050919050565b5f6020820190508181035f83015261091f816108e6565b9050919050565b7f496e76616c69642043616e64696461746520496e6465780000000000000000005f82015250565b5f61095a6017836105b6565b915061096582610926565b602082019050919050565b5f6020820190508181035f8301526109878161094e565b9050919050565b7f4e487b71000000000000000000000000000000000000000000000000000000005f52603260045260245ffd5b7f4e487b71000000000000000000000000000000000000000000000000000000005f52601160045260245ffd5b5f6109f28261054e565b91507fffffffffffffffffffffffffffffffffffffffffffffffffffffffffffffffff8203610a2457610a236109bb565b5b600182019050919050565b610a3881610692565b82525050565b5f604082019050610a515f830185610a2f565b610a5e6020830184610636565b9392505050565b7f4e487b71000000000000000000000000000000000000000000000000000000005f52602260045260245ffd5b5f6002820490506001821680610aa957607f821691505b602082108103610abc57610abb610a65565b5b50919050565b5f819050815f5260205f209050919050565b5f6020601f8301049050919050565b5f82821b905092915050565b5f60088302610b1e7fffffffffffffffffffffffffffffffffffffffffffffffffffffffffffffffff82610ae3565b610b288683610ae3565b95508019841693508086168417925050509392505050565b5f819050919050565b5f610b63610b5e610b598461054e565b610b40565b61054e565b9050919050565b5f819050919050565b610b7c83610b49565b610b90610b8882610b6a565b848454610aef565b825550505050565b5f90565b610ba4610b98565b610baf818484610b73565b505050565b5b81811015610bd257610bc75f82610b9c565b600181019050610bb5565b5050565b601f821115610c1757610be881610ac2565b610bf184610ad4565b81016020851015610c00578190505b610c14610c0c85610ad4565b830182610bb4565b50505b505050565b5f82821c905092915050565b5f610c375f1984600802610c1c565b1980831691505092915050565b5f610c4f8383610c28565b9150826002028217905092915050565b610c68826105ac565b67ffffffffffffffff811115610c8157610c80610733565b5b610c8b8254610a92565b610c96828285610bd6565b5f60209050601f831160018114610cc7575f8415610cb5578287015190505b610cbf8582610c44565b865550610d26565b601f198416610cd586610ac2565b5f5b82811015610cfc57848901518255600182019150602085019450602081019050610cd7565b86831015610d195784890151610d15601f891682610c28565b8355505b6001600288020188555050505b50505050505056fea2646970667358221220072d59171f60dbbc1fbe16b55a8a1039de4b7b1c40ee5fed40a68f593bb2b2f064736f6c63430008150033",
  "immutableReferences": {},
  "source": "// SPDX-License-Identifier: MIT\npragma solidity >=0.4.22 <0.9.0;\n\ncontract Vote {\n    struct candidate {\n        string name;\n        uint votecount;\n    }\n\n    candidate[] public candidates;\n    mapping(address => bool) public hasvote;// database  addressprimary key \n    event NewcandidateProposed(address newcandidate, uint timestamp);\n\n    function proposecandidate(string memory name) public { //this is transactional function \n        candidates.push(candidate(name, 0)); \n        emit NewcandidateProposed(msg.sender, block.timestamp);\n    }\n\n    event voted(address voter, uint timestamp);\n\n    function vote(uint candidateindex) public {\n        require(hasvote[msg.sender] == false, \"You Have Already Vote\"); //checked Never vote yet\n        require(candidateindex < candidates.length, \"Invalid Candidate Index\"); // checked have candidate or not\n        hasvote[msg.sender] = true; // send that you has been vote\n        candidates[candidateindex].votecount++;\n        emit voted(msg.sender, block.timestamp);\n    }\n\n    function getwinner() public view returns (string memory name) {\n      uint MaxIndex = 0;\n      uint MaxVote = 0;\n      for(uint currentIndex = 0; currentIndex < candidates.length; currentIndex++){\n        if(candidates[currentIndex].votecount > MaxVote){\n          MaxVote = candidates[currentIndex].votecount;\n          MaxIndex = currentIndex;\n        }\n      }\n      return candidates[MaxIndex].name;\n    }\n\n    //constructor() public {}\n}\n",
  "sourcePath": "C:\\Work\\HelloSolidity\\contracts\\Vote.sol",
  "compiler": {
    "name": "solc",
    "version": "0.8.21+commit.d9974bed.Emscripten.clang"
  },
  "schemaVersion": "3.4.16",
  "updatedAt": "2023-11-17T15:33:52.314Z",
  "devdoc": {
    "kind": "dev",
    "methods": {},
    "version": 1
  },
  "userdoc": {
    "kind": "user",
    "methods": {},
    "version": 1
  }
}